:020000040800F2
:1000000000000220F94C00085D4600085F46000829
:1000100061460008634600086546000800000000CD
:10002000000000000000000000000000674600081B
:1000300069460008000000006B4600086D46000895
:10004000494D0008494D0008494D0008494D000838
:10005000494D0008494D0008494D0008494D000828
:10006000494D0008494D0008494D0008494D000818
:10007000494D0008494D0008494D0008494D000808
:10008000494D0008494D0008494D0008494D0008F8
:1000900075460008494D0008494D0008494D0008C3
:1000A000494D000859490008494D0008494D0008CC
:1000B000494D0008494D0008494D0008494D0008C8
:1000C000494D0008494D0008494D0008494D0008B8
:1000D000494D0008494D0008C1470008494D000836
:1000E000494D0008494D0008494D0008494D000898
:1000F000494D0008494D0008494D0008494D000888
:10010000494D0008494D0008494D0008494D000877
:10011000494D0008494D0008494D0008494D000867
:10012000494D0008494D0008494D0008494D000857
:10013000494D00080000000000000000494D000883
:10014000494D0008494D0008494D0008494D000837
:10015000494D0008494D0008494D0008494D000827
:10016000494D0008494D0008494D0008494D000817
:10017000494D0008494D0008494D000800000000A5
:1001800000000000494D00080000000000000000D1
:10019000494D00080000000000000000494D000823
:1001A000000000000000000000000000494D0008B1
:1001B000494D0008494D0008494D0008494D0008C7
:0401C000494D00089D
:1002000081F0004102E000BF83F0004330B54FEAC7
:1002100041044FEA430594EA050F08BF90EA020F34
:100220001FBF54EA000C55EA020C7FEA645C7FEAC7
:10023000655C00F0E2804FEA5454D4EB5555B8BFEA
:100240006D420CDD2C4480EA020281EA030382EA5B
:10025000000083EA010180EA020281EA0303362DED
:1002600088BF30BD11F0004F4FEA01314FF4801CC0
:100270004CEA113102D0404261EB410113F0004FD2
:100280004FEA03334CEA133302D0524263EB430389
:1002900094EA050F00F0A780A4F10104D5F1200E27
:1002A0000DDB02FA0EFC22FA05F2801841F1000182
:1002B00003FA0EF2801843FA05F359410EE0A5F156
:1002C00020050EF1200E012A03FA0EFC28BF4CF087
:1002D000020C43FA05F3C01851EBE37101F000453D
:1002E00007D54FF0000EDCF1000C7EEB00006EEB4A
:1002F0000101B1F5801F1BD3B1F5001F0CD34908D4
:100300005FEA30004FEA3C0C04F101044FEA44522A
:1003100012F5800F80F09A80BCF1004F08BF5FEAB1
:10032000500C50F1000041EB045141EA050130BD91
:100330005FEA4C0C404141EB0101013C28BFB1F5A3
:10034000801FE9D291F0000F04BF01460020B1FAEE
:1003500081F308BF2033A3F10B03B3F120020CDAC1
:100360000C3208DD02F1140CC2F10C0201FA0CF09F
:1003700021FA02F10CE002F11402D8BFC2F1200C04
:1003800001FA02F120FA0CFCDCBF41EA0C019040BA
:10039000E41AA2BF01EB0451294330BD6FEA040403
:1003A0001F3C1CDA0C340EDC04F11404C4F12002EE
:1003B00020FA04F001FA02F340EA030021FA04F300
:1003C00045EA030130BDC4F10C04C4F1200220FA57
:1003D00002F001FA04F340EA0300294630BD21FA95
:1003E00004F0294630BD94F0000F83F4801306BF5B
:1003F00081F480110134013D4EE77FEA645C18BF4F
:100400007FEA655C29D094EA050F08BF90EA020FE5
:1004100005D054EA000C04BF1946104630BD91EADD
:10042000030F1EBF0021002030BD5FEA545C05D1E0
:100430004000494128BF41F0004130BD14F580041F
:100440003CBF01F5801130BD01F0004545F0FE4193
:1004500041F470014FF0000030BD7FEA645C1ABFC8
:10046000194610467FEA655C1CBF0B46024650EAFF
:10047000013406BF52EA033591EA030F41F400212B
:1004800030BD00BF90F0000F04BF0021704730B5B1
:100490004FF4806404F132044FF000054FF0000186
:1004A00050E700BF90F0000F04BF0021704730B547
:1004B0004FF4806404F1320410F0004548BF40421C
:1004C0004FF000013EE700BF42004FEAE2014FEA71
:1004D00031014FEA02701FBF12F07F4393F07F4F4C
:1004E00081F06051704732F07F4208BF704793F04F
:1004F0007F4F04BF41F40021704730B54FF4607462
:1005000001F0004521F000411CE700BF50EA010264
:1005100008BF704730B54FF000050AE050EA01020D
:1005200008BF704730B511F0004502D5404261EB7D
:1005300041014FF4806404F132045FEA915C3FF4BE
:10054000D8AE4FF003025FEADC0C18BF03325FEA5B
:10055000DC0C18BF033202EBDC02C2F1200300FA0C
:1005600003FC20FA02F001FA03FE40EA0E0021FA31
:1005700002F11444BDE600BF4A0011D212F5001288
:1005800011D20DD56FF47873B3EB62520ED44FEAEB
:10059000C12343F0004343EA505323FA02F070476B
:1005A0004FF00000704750EA013002D14FF0FF30A9
:1005B00070474FF0000070474FEA4102B2F1E0434C
:1005C00024BFB3F5001CDCF1FE5C0DD901F0004C3A
:1005D0004FEAC0024CEA5070B2F1004F40EB83008A
:1005E00008BF20F00100704711F0804F21D113F1B6
:1005F0003872BCBF01F00040704741F480114FEAEF
:100600005252C2F11802C2F1200C10FA0CF320FA77
:1006100002F018BF40F001004FEAC1234FEAD32394
:1006200003FA0CFC40EA0C0023FA02F34FEA4303FE
:10063000CCE77FEA625307D150EA01331EBF4FF087
:10064000FE4040F44000704701F0004040F0FE40A2
:1006500040F40000704700BF80F0004002E000BF9F
:1006600081F0004142001FBF5FEA410392EA030F9D
:100670007FEA226C7FEA236C6AD04FEA1262D2EBE7
:100680001363C1BFD218414048404140B8BF5B42EC
:10069000192B88BF704710F0004F40F4000020F085
:1006A0007F4018BF404211F0004F41F4000121F09B
:1006B0007F4118BF494292EA030F3FD0A2F10102E5
:1006C00041FA03FC10EB0C00C3F1200301FA03F123
:1006D00000F0004302D5494260EB4000B0F5000F46
:1006E00013D3B0F1807F06D340084FEA310102F105
:1006F0000102FE2A51D2B1F1004F40EBC25008BFB7
:1007000020F0010040EA03007047490040EB000080
:10071000013A28BFB0F5000FEDD2B0FA80FCACF181
:10072000080CB2EB0C0200FA0CF0AABF00EBC250AE
:1007300052421843BCBFD0401843704792F0000F9C
:1007400081F4000106BF80F400000132013BB5E7EF
:100750004FEA41037FEA226C18BF7FEA236C21D065
:1007600092EA030F04D092F0000F08BF08467047CA
:1007700090EA010F1CBF0020704712F07F4F04D198
:10078000400028BF40F00040704712F100723CBFAB
:1007900000F50000704700F0004343F0FE4040F4D5
:1007A000000070477FEA226216BF08467FEA236393
:1007B0000146420206BF5FEA412390EA010F40F47E
:1007C000800070474FF0000304E000BF10F00043CA
:1007D00048BF40425FEA000C08BF704743F09643B1
:1007E00001464FF000001CE050EA010208BF7047CC
:1007F0004FF000030AE000BF50EA010208BF704753
:1008000011F0004302D5404261EB41015FEA010C67
:1008100002BF84460146002043F0B64308BFA3F15F
:100820008053A3F50003BCFA8CF2083AA3EBC25341
:1008300010DB01FA02FC634400FA02FCC2F1200260
:10084000BCF1004F20FA02F243EB020008BF20F097
:100850000100704702F1200201FA02FCC2F12002FD
:1008600050EA4C0021FA02F243EB020008BF20EAF2
:10087000DC7070474FF0FF0C1CEAD0521EBF1CEA20
:10088000D15392EA0C0F93EA0C0F6FD01A4480EA0E
:10089000010C400218BF5FEA41211ED04FF00063F7
:1008A00043EA501043EA5111A0FB01310CF0004023
:1008B000B1F5000F3EBF490041EAD3715B0040EA49
:1008C000010062F17F02FD2A1DD8B3F1004F40EB19
:1008D000C25008BF20F00100704790F0000F0CF0EC
:1008E000004C08BF49024CEA502040EA51207F3AB0
:1008F000C2BFD2F1FF0340EAC250704740F400008B
:100900004FF00003013A5DDC12F1190FDCBF00F07B
:1009100000407047C2F10002410021FA02F1C2F129
:10092000200200FA02FC5FEA310040F1000053EAC5
:100930004C0308BF20EADC70704792F0000F00F013
:10094000004C02BF400010F4000F013AF9D040EA19
:100950000C0093F0000F01F0004C02BF490011F4AD
:10096000000F013BF9D041EA0C018FE70CEAD153AB
:1009700092EA0C0F18BF93EA0C0F0AD030F0004C2B
:1009800018BF31F0004CD8D180EA010000F00040DF
:10099000704790F0000F17BF90F0004F084691F09D
:1009A000000F91F0004F14D092EA0C0F01D14202D7
:1009B0000FD193EA0C0F03D14B0218BF084608D1A0
:1009C00080EA010000F0004040F0FE4040F40000EA
:1009D000704740F0FE4040F4400070474FF0FF0C7D
:1009E0001CEAD0521EBF1CEAD15392EA0C0F93EAC4
:1009F0000C0F69D0A2EB030280EA010C49024FEA16
:100A0000402037D04FF0805343EA111143EA1013CE
:100A10000CF000408B4238BF5B0042F17D024FF486
:100A2000000C8B4224BF5B1A40EA0C00B3EB510F61
:100A300024BFA3EB510340EA5C00B3EB910F24BF4A
:100A4000A3EB910340EA9C00B3EBD10F24BFA3EBCF
:100A5000D10340EADC001B0118BF5FEA1C1CE0D197
:100A6000FD2A3FF650AF8B4240EBC25008BF20F04A
:100A7000010070470CF0004C4CEA50207F32C2BF9E
:100A8000D2F1FF0340EAC250704740F400004FF03B
:100A90000003013A37E792F0000F00F0004C02BF6C
:100AA000400010F4000F013AF9D040EA0C0093F036
:100AB000000F01F0004C02BF490011F4000F013B90
:100AC000F9D041EA0C0195E70CEAD15392EA0C0FF8
:100AD00008D142027FF47DAF93EA0C0F7FF470AF30
:100AE000084676E793EA0C0F04D14B023FF44CAF73
:100AF00008466EE730F0004C18BF31F0004CCAD108
:100B000030F000427FF45CAF31F000437FF43CAF43
:100B10005FE700BF4FF0FF3C06E000BF4FF0010C65
:100B200002E000BF4FF0010C4DF804CD4FEA400247
:100B30004FEA41037FEA226C18BF7FEA236C11D091
:100B400001B052EA530C18BF90EA010F58BFB2EB44
:100B5000030088BFC81738BF6FEAE17018BF40F0C4
:100B6000010070477FEA226C02D15FEA402C05D178
:100B70007FEA236CE4D15FEA412CE1D05DF8040BFD
:100B8000704700BF844608466146FFE70FB5FFF790
:100B9000C9FF002848BF10F1000F0FBD4DF808ED48
:100BA000FFF7F4FF0CBF012000205DF808FB00BF39
:100BB0004DF808EDFFF7EAFF34BF012000205DF893
:100BC00008FB00BF4DF808EDFFF7E0FF94BF0120E0
:100BD00000205DF808FB00BF4DF808EDFFF7D2FFDD
:100BE00094BF012000205DF808FB00BF4DF808ED20
:100BF000FFF7C8FF34BF012000205DF808FB00BFED
:100C00004FEA40024FEA41037FEA226C02D15FEAD9
:100C1000402C08D17FEA236C02D15FEA412C02D13B
:100C20004FF0000070474FF0010070474FEA40025C
:100C3000B2F1FE4F0FD34FF09E03B3EB12620DD90A
:100C40004FEA002343F0004310F0004F23FA02F074
:100C500018BF404270474FF00000704712F1610F1B
:100C600001D1420205D110F0004008BF6FF00040F2
:100C700070474FF00000704742000ED2B2F1FE4FB5
:100C80000BD34FF09E03B3EB126209D44FEA00235B
:100C900043F0004323FA02F070474FF00000704722
:100CA00012F1610F01D1420202D14FF0FF307047C3
:100CB0004FF00000704700BF53B94AB9002908BF80
:100CC00000281CBF4FF0FF314FF0FF3000F00CB890
:100CD000ADF1080C6DE904CE06F09CFFDDF804E0F0
:100CE000DDE9022304B07047704700BF0000000038
:100CF00001F0FF01102A2BDB10F0070F08D010F8CD
:100D0000013B013A8B422DD010F0070F42B3F6D1D0
:100D1000F0B441EA012141EA014122F007047FF0E9
:100D200000070023F0E80256083C85EA010586EA40
:100D3000010685FA47F5A3FA87F586FA47F6A5FA7C
:100D400087F68EB9EED1F0BC01F0FF0102F0070288
:100D500032B110F8013B013A83EA010313B1F8D133
:100D60000020704701387047002D06BF3546033814
:100D7000073815F0010F07D1013015F4807F02BF4D
:100D8000013015F4C03F0130F0BC0138704700BF9E
:100D9000844641EA000313F003036DD1403A41D386
:100DA00051F8043B40F8043B51F8043B40F8043B45
:100DB00051F8043B40F8043B51F8043B40F8043B35
:100DC00051F8043B40F8043B51F8043B40F8043B25
:100DD00051F8043B40F8043B51F8043B40F8043B15
:100DE00051F8043B40F8043B51F8043B40F8043B05
:100DF00051F8043B40F8043B51F8043B40F8043BF5
:100E000051F8043B40F8043B51F8043B40F8043BE4
:100E100051F8043B40F8043B51F8043B40F8043BD4
:100E2000403ABDD2303211D351F8043B40F8043B74
:100E300051F8043B40F8043B51F8043B40F8043BB4
:100E400051F8043B40F8043B103AEDD20C3205D384
:100E500051F8043B40F8043B043AF9D2043208D07C
:100E6000D2071CBF11F8013B00F8013B01D30B88EE
:100E700003806046704700BF082A13D38B078DD0CC
:100E800010F003038AD0C3F10403D21ADB071CBF9E
:100E900011F8013B00F8013B80D331F8023B20F808
:100EA000023B7BE7043AD9D3013A11F8013B00F841
:100EB000013BF9D20B7803704B7843708B788370C9
:100EC00060467047000000000000000000000000C5
:100ED0000000000000000000000000000000000012
:100EE0000000000000000000000000000000000002
:100EF00000000000000000000000000000000000F2
:100F000030B490F800F020F007016FF0000C10F002
:100F1000070491F820F040F048804FF000046FF093
:100F20000700D1E9002391F840F000F1080082FAAF
:100F30004CF2A4FA8CF283FA4CF3A2FA8CF34BBB7A
:100F4000D1E9022382FA4CF200F10800A4FA8CF2F3
:100F500083FA4CF3A2FA8CF3E3B9D1E9042382FAC1
:100F60004CF200F10800A4FA8CF283FA4CF3A2FAD6
:100F70008CF37BB9D1E9062301F1200182FA4CF20E
:100F800000F10800A4FA8CF283FA4CF3A2FA8CF375
:100F9000002BC6D0002A04BF04301A4612BAB2FA97
:100FA00082F200EBD20030BC7047D1E9002304F09C
:100FB0000305C4F100004FEAC50514F0040F91F8D1
:100FC00040F00CFA05F562EA05021CBF63EA05036E
:100FD00062464FF00004AAE770B54FF0FF0C4CF4E6
:100FE000E06C1CEA11541DBF1CEA135594EA0C0F67
:100FF00095EA0C0F00F0DEF82C4481EA030621EAA2
:101000004C5123EA4C5350EA013518BF52EA0335DC
:1010100041F4801143F4801338D0A0FB02CE4FF08E
:101020000005E1FB02E506F00042E0FB03E54FF0BE
:101030000006E1FB03569CF0000F18BF4EF0010EB6
:10104000A4F1FF04B6F5007F64F5407404D25FEAB2
:101050004E0E6D4146EB060642EAC62141EA555165
:101060004FEAC52040EA5E504FEACE2EB4F1FD0CA7
:1010700088BFBCF5E06F1ED8BEF1004F08BF5FEA25
:10108000500E50F1000041EB045170BD06F00046D7
:1010900046EA010140EA020081EA0301B4EB5C0484
:1010A000C2BFD4EB0C0541EA045170BD41F480117C
:1010B0004FF0000E013C00F3AB8014F1360FDEBFA1
:1010C000002001F0004170BDC4F10004203C35DA7D
:1010D0000C341BDC04F11404C4F1200500FA05F300
:1010E00020FA04F001FA05F240EA020001F00042A1
:1010F00021F0004110EBD37021FA04F642EB060117
:101100005EEA430E08BF20EAD37070BDC4F10C0440
:10111000C4F1200500FA04F320FA05F001FA04F204
:1011200040EA020001F0004110EBD37041F10001F0
:101130005EEA430E08BF20EAD37070BDC4F12005FB
:1011400000FA05F24EEA020E20FA04F301FA05F263
:1011500043EA020321FA04F001F0004121FA04F20B
:1011600020EA020000EBD3705EEA430E08BF20EADB
:10117000D37070BD94F0000F0FD101F00046400015
:1011800041EB010111F4801F08BF013CF7D041EA97
:10119000060195F0000F18BF704703F0004652009B
:1011A00043EB030313F4801F08BF013DF7D043EA6C
:1011B0000603704794EA0C0F0CEA135518BF95EA22
:1011C0000C0F0CD050EA410618BF52EA4306D1D1A9
:1011D00081EA030101F000414FF0000070BD50EAC8
:1011E000410606BF1046194652EA430619D094EA52
:1011F0000C0F02D150EA013613D195EA0C0F05D13C
:1012000052EA03361CBF104619460AD181EA03018F
:1012100001F0004141F0FE4141F470014FF0000047
:1012200070BD41F0FE4141F4780170BD70B54FF0E2
:10123000FF0C4CF4E06C1CEA11541DBF1CEA135562
:1012400094EA0C0F95EA0C0F00F0A7F8A4EB050444
:1012500081EA030E52EA03354FEA013100F088803B
:101260004FEA03334FF0805545EA131343EA126304
:101270004FEA022245EA111545EA10654FEA0026B9
:101280000EF000419D4208BF964244F1FD0404F572
:10129000407402D25B084FEA3202B61A65EB0305CE
:1012A0005B084FEA32024FF480104FF4002CB6EB8B
:1012B000020E75EB030E22BFB61A754640EA0C000B
:1012C0005B084FEA3202B6EB020E75EB030E22BF4B
:1012D000B61A754640EA5C005B084FEA3202B6EB8C
:1012E000020E75EB030E22BFB61A754640EA9C004B
:1012F0005B084FEA3202B6EB020E75EB030E22BF1B
:10130000B61A754640EADC0055EA060E18D04FEAD8
:10131000051545EA16754FEA06164FEAC30343EA78
:1013200052734FEAC2025FEA1C1CC0D111F4801F45
:101330000BD141EA00014FF000004FF0004CB6E73E
:1013400011F4801F04BF01430020B4F1FD0C88BFDD
:10135000BCF5E06F3FF6AFAEB5EB030C04BFB6EBE8
:10136000020C5FEA500C50F1000041EB045170BDDB
:101370000EF0004E4EEA113114EB5C04C2BFD4EB08
:101380000C0541EA045170BD41F480114FF0000E8C
:10139000013C90E645EA060E8DE60CEA135594EA08
:1013A0000C0F08BF95EA0C0F3FF43BAF94EA0C0F0B
:1013B0000AD150EA01347FF434AF95EA0C0F7FF480
:1013C00025AF104619462CE795EA0C0F06D152EAD4
:1013D00003353FF4FDAE1046194622E750EA4106B8
:1013E00018BF52EA43067FF4C5AE50EA41047FF4C9
:1013F0000DAF52EA43057FF4EBAE12E74FF0FF3C2E
:1014000006E000BF4FF0010C02E000BF4FF0010CFE
:101410004DF804CD4FEA410C7FEA6C5C4FEA430C77
:1014200018BF7FEA6C5C1BD001B050EA410C0CBFC6
:1014300052EA430C91EA030F02BF90EA020F002028
:10144000704710F1000F91EA030F58BF994208BF8F
:1014500090422CBFD8176FEAE37040F0010070474C
:101460004FEA410C7FEA6C5C02D150EA013C07D1A3
:101470004FEA430C7FEA6C5CD6D152EA033CD3D0EE
:101480005DF8040B704700BF8446104662468C46E8
:101490001946634600E000BF01B5FFF7B7FF00281B
:1014A00048BF10F1000F01BD4DF808EDFFF7F4FF44
:1014B0000CBF012000205DF808FB00BF4DF808EDCF
:1014C000FFF7EAFF34BF012000205DF808FB00BFF2
:1014D0004DF808EDFFF7E0FF94BF012000205DF814
:1014E00008FB00BF4DF808EDFFF7CEFF94BF0120C9
:1014F00000205DF808FB00BF4DF808EDFFF7C4FFC2
:1015000034BF012000205DF808FB00BF4FEA410C0A
:101510007FEA6C5C02D150EA013C0AD14FEA430CED
:101520007FEA6C5C02D152EA033C02D14FF000002A
:1015300070474FF0010070474FEA410212F5001268
:1015400015D211D56FF47873B3EB625212D94FEA0A
:10155000C12343F0004343EA505311F0004F23FAF4
:1015600002F018BF404270474FF00000704750EA49
:10157000013005D111F0004008BF6FF00040704706
:101580004FF00000704700BF0348044B834202D075
:10159000034B03B118477047C0060020C006002067
:1015A000000000000548064B1B1AD90F01EBA301F0
:1015B000491002D0034B03B118477047C006002002
:1015C000C00600200000000010B5064C237843B987
:1015D000FFF7DAFF044B13B10448AFF30080012397
:1015E000237010BDC006002000000000E8070108BD
:1015F00008B5054B1BB105490548AFF30080BDE8B0
:101600000840FFF7CFBF00BF00000000C406002065
:10161000E807010800B589B00023059306930793F6
:1016200001930293039304931B481C4A02604FF4F6
:101630008032426083600361037680F82030C362A9
:10164000174A8262C3600122C26180F83030426171
:1016500003F07CFCB8B91623059300230693079387
:1016600005A90D4803F076FE80B90A2301930123F2
:1016700002930023039301A9074803F095FD40B9A5
:1016800009B05DF804FB02F0C5FBE4E702F0C2FB21
:10169000EBE702F0BFFBF3E76C07002000200140FE
:1016A0000100000F00B585B0002300930193029361
:1016B00003931448144A02604FF4803242608360FE
:1016C0000361037680F82030C3600122C26180F894
:1016D0003030426103F03AFC68B90B2300930123D8
:1016E0000193002302936946064803F05DFD28B983
:1016F00005B05DF804FB02F08DFBEEE702F08AFB1B
:10170000F6E700BF240700200021014000B585B0A6
:10171000002300930193029303931348134A02603A
:101720004FF48032426083600361037680F820309A
:10173000C3600122C26180F83030426103F006FCD0
:1017400060B9002300930122019202936946064882
:1017500003F02AFD28B905B05DF804FB02F05AFB3E
:10176000EFE702F057FBF6E7DC060020002201401D
:1017700000B58DB000230793089309930A930B9348
:101780000368344A934208D0334A934224D0334A00
:10179000934240D00DB05DF804FB00210191304B25
:1017A0005A6C42F480725A645A6C02F4807201924C
:1017B000019A02911A6B42F004021A631B6B03F048
:1017C00004030293029B012307930323089307A9B1
:1017D000244804F091FADDE700210391204B5A6C74
:1017E00042F400725A645A6C02F400720392039A33
:1017F00004911A6B42F004021A631B6B03F004039A
:101800000493049B022307930323089307A9154815
:1018100004F072FABEE700210591114B5A6C42F4B4
:1018200080625A645A6C02F480620592059A0691AD
:101830001A6B42F001021A631B6B03F0010306935B
:10184000069B012307930323089307A9064804F086
:1018500053FA9FE70020014000210140002201408F
:10186000003802400008024000000240F0B583B09A
:1018700007460E4614461D464B4B00221A60237C39
:10188000002B58D0E068281AFEF7A0FF4749FEF762
:10189000F1FF054660614FF07E51FFF789F900289E
:1018A00050D143492846FFF783F9002861D13046DB
:1018B00001F062F8FD68A66931462846FEF7D0FEC1
:1018C00020F000413B48FFF789F8FEF7FDFD0EF0E0
:1018D0003DFEFEF751FE207029463046FFF768F9BD
:1018E00000285AD0002384F82030334809F03CFA0D
:1018F0002178324806F0F4FAA069FEF7E5FD0646C5
:101900000F462846FEF7E0FDCDE9000132463B4692
:101910002B4806F0E5FA94F82020234B1A60207833
:10192000FEF750FF274B986200232374012384F8AD
:10193000213003B0F0BD244809F016FA01232374C6
:10194000E5609FE70023A36004F50042C2F88832F7
:10195000C2F890321B4A926CC6F8AC20C6F8B03080
:1019600004F502412C31304601F0ACF8FB68A3616C
:10197000DFE74FF07E512846FEF772FE1349FEF76F
:1019800079FFA06004F50043C3F8880204F5024122
:101990002C31304601F096F8CBE7012384F8203053
:1019A0000B4809F0E1F9A3E77093002017B7D1378E
:1019B000BE6CD03FDB0FC940240801085408010861
:1019C0006808010870970020000801080000204105
:1019D0003C0801082DE9F04F83B081460C461746BC
:1019E0001D46137C002B39D0F868281AFEF7EEFE4E
:1019F0009F49FEF73FFF054678614FF07E51FFF7A4
:101A0000D7F8002836D19B4B9E6A9B493046FEF79B
:101A100031FF9A49FEF7E2FF4FF07E51FEF722FEBA
:101A200001462846FFF7C4F800283BD194493046C8
:101A3000FEF720FF9149FEF7D1FF4FF07E51FEF7F0
:101A400011FE01462846FFF7B3F8002840F08A80CF
:101A5000204600F091FF00242546E5E0894809F082
:101A600083F901233B74FD604FF07E53BB6200237A
:101A7000BB84B9E70023BB6007F50042C2F8883297
:101A80007C4A926CC4F8AC20C4F8B03007F502412F
:101A90002C31204601F016F8D9F80C30BB617B6977
:101AA000BB626BE17849B868FEF7DCFDB86007F50A
:101AB0000042C2F8880207F502412C31204601F0AD
:101AC00001F8B96A7869FFF791F8002800F05681AB
:101AD000D7F808804FF08E414046FEF7CBFE044613
:101AE000644E6549B06AFEF7C5FE01462046FEF722
:101AF00075FFFFF79BF80546D9F874301B1A1C14C4
:101B000004F40044B7F824901C4409F10A0307EBDD
:101B100083035C604046FEF7D7FCCDE90001234615
:101B20002A464946594806F0DBF95949B86AFEF792
:101B300099FDB862BC8C2046FEF748FE05464FF082
:101B40008641B06AFEF796FE4FF07E51FEF788FDA3
:101B500001462846FFF722F8002840F00F810134A3
:101B6000BC840BE14849B868FEF77AFDB860414B88
:101B70009B6CC4F8AC300023C4F8B030BA6807F5E9
:101B80000043C3F8882207F502412C31204600F0BB
:101B900099FFB96A7869FFF729F8002800F0EE800C
:101BA000BE8C002E00F0EA80D7F808804FF08E41FE
:101BB0004046FEF75FFE04462F492E4B986AFEF71B
:101BC00059FE01462046FEF709FFFFF72FF80546AC
:101BD000D9F87420121A131403F40043134406F1C5
:101BE0000A0207EB820254681C4404EBD4746410AC
:101BF00054604046FEF768FCCDE9000123462A46C2
:101C00003146224806F06CF9BB8C013BBB8420496D
:101C1000B86AFEF727FDB862B0E004F10A0307EBEB
:101C200083035B681D440134124B9E6A3046FEF705
:101C3000FDFFB4EBC01FF0DB4FF086413046FEF7EE
:101C400019FE04462846FEF7C1FD2146FEF7C6FEF2
:101C5000FEF7ECFFF861FB6AD3F5004904D44FEAC4
:101C600029294FF000087AE009F1FF09F7E700BFE2
:101C700017B7D13770970020DB0FC9400000204113
:101C8000DB0F4941840801086E128339AC08010852
:101C90007CD9A03B4FF086415046FEF7EBFD8246D3
:101CA0002046FEF793FD5146FEF7DCFCFEF7BEFF33
:101CB00004460A3407EB840463681E4401353F2D53
:101CC00037DC304BD3F828A04046FEF77FFD514665
:101CD000FEF7D0FD4FF08641FEF7CCFD4FF070517E
:101CE000FEF7C8FD04462846FEF770FD2146FEF7C4
:101CF000B9FCFEF79BFF041ECCDB2046FEF766FD19
:101D000083464FF086415046FEF7B4FD82464FF0C1
:101D10007E51FEF7A5FC01465846FEF767FF0028F6
:101D2000C7D051465846FEF79BFCFEF77FFF04469E
:101D3000BFE73346002E19DBDB1108EB09017F29D1
:101D400000DD8039FA699A1A01F500530A3307EB6E
:101D500083035A600C4806F0C3F808F10108B8F193
:101D60007F0F06DC6FF03F050026A8E706F17F0332
:101D7000E2E700233B74012387F8223003B0BDE87B
:101D8000F08F00BF70970020BC08010808B50D480F
:101D90000D4B03600323436000238360C3604FF453
:101DA000302202614FF480124261037643768376DB
:101DB000C3760377437703F0F9FA00B908BD02F060
:101DC00029F8FBE7B40700200064004010B588B094
:101DD0000023039304930593069307930268194B1A
:101DE0009A4201D008B010BD0024019403F5EA33F3
:101DF0001A6C42F000721A641A6C02F000720192BE
:101E0000019A02941A6B42F002021A631B6B03F0F0
:101E100002030293029B4FF4407303930223049343
:101E2000032306930923079303A9074803F064FFDC
:101E300022462146142003F0CFFE142003F0DCFEDE
:101E4000D0E700BF006400400004024008B5002352
:101E50008363094A526852018262C36240F6FF728C
:101E600002634363036401234364836400F1280134
:101E7000024803F041FB08BD70930020B407002026
:101E800007238361002303614361024B9B688360E6
:101E9000704700BF709300202DE9F041044688464A
:101EA00010461D461B4E1023326DF16C02F020F8D7
:101EB00007460C23B26D716D284602F019F80546ED
:101EC0000021F068FEF7CEFB00F10040B16BFEF799
:101ED000D1FC716CFEF7CEFC014600F100420C23F0
:101EE000069802F005F8064608230B4A00210798D9
:101EF00001F0FEFF84F801803B12A370E7702B1104
:101F000023712D0105EB26256571A671E071BDE8F1
:101F1000F08100BF709700200000204284B02DE9BE
:101F2000F84308AC84E80F001C9F9DF821C09DF881
:101F300022009DF823309DF824604FEA161949EAE3
:101F40000319360206F470669DF825301E439DF88D
:101F500026209DF827304FEA131848EA02181D0280
:101F600005F470659DF828301D431A4C1023226D2E
:101F7000E16C40EA0C2001F0D7FF38600C23A26D21
:101F8000616D484601F0D0FF78604FF000090C23E6
:101F9000E26D4946304601F0C7FFB8600C23226E5F
:101FA0004946404601F0C0FFF860E06800F100409B
:101FB000A16BFEF75FFC616CFEF75CFC014600F173
:101FC00000420C23284601F0AFFF3861BDE8F8431A
:101FD00004B070477097002030B583B004460546C2
:101FE00025F8021B002210210C4803F079FF64231E
:101FF000009301232A462146094804F06CFC084B53
:1020000093F85130DBB2022BF9D0012210210348A2
:1020100003F066FF608803B030BD00BF00000240DF
:10202000C898002000B583B06B4683E803004FF4E6
:1020300000411846FFF7D0FF03B05DF804FB00B580
:1020400083B06B4683E8030048F201011846FFF7AE
:10205000C3FF03B05DF804FB00B583B06B4683E8B3
:1020600003006FEA02716FEA514189B21846FFF727
:10207000B3FF03B05DF804FB00B583B0EC468CE819
:10208000030043EAC22399B26046FFF7A5FF03B0FD
:102090005DF804FB00B583B0EC468CE80300520207
:1020A00042F4805212B242EA032109B2049B41EA8F
:1020B000C31109B2059B41EA431109B2069B41EAEB
:1020C000031109B2079B41EAC30109B2089B41EA27
:1020D000830109B2099B41EA430109B20A9B1943F2
:1020E00089B26046FFF778FF03B05DF804FB00B5E6
:1020F00083B0EC468CE80300920242F4205212B204
:1021000042EA032109B2049B41EA831109B2059B0B
:1021100041EA031109B2069B194389B26046FFF7F1
:102120005BFF03B05DF804FB00B583B0EC468CE8C0
:102130000300920242F4405212B242EA432109B231
:10214000049B41EA032109B2059B41EA831109B2CC
:10215000069B41EA431109B2079B41EA031109B208
:10216000089B41EAC30109B2099B41EA830109B214
:102170000A9B194389B26046FFF72EFF03B05DF852
:1021800004FB10B582B06C4684E80300022294E898
:102190000300FFF761FF20F004039BB2022294E8E2
:1021A0000300FFF769FF02B010BD10B582B06C46A6
:1021B00084E80300022294E80300FFF74DFF40F09B
:1021C00004039BB2022294E80300FFF755FF02B01C
:1021D00010BD000030B583B06C4684E8030094E87D
:1021E0000300FFF71FFF054694E80300FFF727FFF2
:1021F000044615F4806F40D115F4007F41D115F4E9
:10220000807F42D115F0800F43D115F0400F44D1AB
:1022100015F0200F45D115F0100F46D115F0080F1D
:1022200047D115F0040F48D115F0020F49D115F030
:10223000010F4AD114F4806F4BD114F4007F4CD1BC
:1022400014F4807F4DD114F0800F4ED114F0400F64
:102250004FD114F0200F50D114F0100F51D114F0C1
:10226000080F52D114F0040F53D114F0020F54D1BF
:1022700014F0010F55D103B030BD2C4805F030FEED
:10228000BAE72B4805F02CFEB9E72A4805F028FEEE
:10229000B8E7294805F024FEB7E7284805F020FEF6
:1022A000B6E7274805F01CFEB5E7264805F018FEFE
:1022B000B4E7254805F014FEB3E7244805F010FE06
:1022C000B2E7234805F00CFEB1E7224805F008FE0E
:1022D000B0E7214805F004FEAFE7204805F000FE16
:1022E000AEE71F4805F0FCFDADE71E4805F0F8FD20
:1022F000ACE71D4805F0F4FDABE71C4805F0F0FD28
:10230000AAE71B4805F0ECFDA9E71A4805F0E8FD2F
:10231000A8E7194805F0E4FDA7E7184805F0E0FD37
:10232000A6E7174805F0DCFDA5E700BFC8080108CF
:10233000D4080108E0080108E8080108F0080108CD
:10234000F808010804090108100901081C0901081E
:102350002809010834090108400901084809010851
:1023600050090108580901086009010868090108B5
:1023700074090108800901088C09010898090108FD
:10238000A4090108072900D907218160034B53F8EC
:102390002130436000230370704700BF54120108CE
:1023A00010B5044602F084F8F12002F099F8A26812
:1023B0000221044B53F8220002F0D8F801232370C5
:1023C00010BD00BF3412010800B585B00DF1100C2E
:1023D0000CE907000699029800EB830002F0FEF872
:1023E00005B05DF804FB00B585B00DF1100C0CE9EB
:1023F00007000699029800EB830002F0EFF805B0A1
:102400005DF804FB10B5044602F062F80023237067
:1024100010BD000084B00DF1100C0CE9070011464E
:10242000034A52F8212052F8230004B0704700BF3D
:102430005412010884B00DF1100C0CE9070011468C
:10244000034A52F8212052F8230004B0704700BF1D
:1024500054120108F8B50446C16D4FF07E50FEF7E6
:10246000FFF80646216E4FF07E50FEF7F9F805465C
:10247000616E4FF07E50FEF7F3F804461F4B1B6869
:10248000EBB91F4B1F68F86AFEF79CF93146FEF75F
:10249000F1F9FEF7F1FB7863F86AFEF793F9294644
:1024A000FEF7E8F9FEF7E8FBB863F86AFEF78AF989
:1024B0002146FEF7DFF9FEF7DFFBF863F8BD104BAE
:1024C0001F68F86AFEF77EF93146FEF7D3F9FEF78A
:1024D000D3FBB863F86AFEF775F92946FEF7CAF927
:1024E000FEF7CAFB7863F86AFEF76CF92146FEF73F
:1024F000C1F9FEF7C1FBF863E0E700BF709300206D
:102500002499002070B50446234B1B68002B39D159
:10251000224802F045FE6060214802F041FEA060C2
:102520001E4D284602F03EFD4FF0FF31284602F0D6
:10253000DBFD1C4802F034FE2061FEF747F91A4922
:10254000FEF798F92062666F6068D4F89C30C01A74
:10255000FEF73CF901463046FEF78CF9054660610E
:10256000A068D4F8A030C01AFEF730F90146304612
:10257000FEF780F90146A06105F10040FEF770F812
:10258000E06170BD064802F00BFE6060034802F097
:1025900007FEA060C4E700BF709300206C07002016
:1025A00024070020DC0600201833533C2DE9F047B7
:1025B0000546884617461E4601F0F2FC04462846AA
:1025C00001F0CEFC054641462046FEF753F9814610
:1025D00039462846FEF74EF901464846FEF740F8D0
:1025E000306022492846FEF745F906464FF07C51F7
:1025F0002046FEF73FF9814601463046FEF730F8A7
:102600004146FEF737F9824619492046FEF732F96E
:1026100004464FF07C512846FEF72CF9054601464A
:102620002046FEF71DF83946FEF724F901465046CC
:10263000FEF716F8089B186006F100404946FEF7C1
:102640000FF84146FEF716F9064604F10040294608
:10265000FEF706F83946FEF70DF901463046FDF75C
:10266000FFFF099B1860BDE8F08700BFD7B35D3F4F
:10267000D7B35DBF2DE9F84F0446894690461F4603
:1026800001F08EFC0646204601F06AFC05464946EC
:102690003046FEF7EFF883462B492846FEF7EAF866
:1026A00004464FF07C513046FEF7E4F8824601467E
:1026B0002046FDF7D5FF4146FEF7DCF801465846B7
:1026C000FDF7D0FF834604F100405146FDF7C8FFF7
:1026D0003946FEF7CFF801465846FDF7C3FF1B49C0
:1026E000FEF7C8F80A9B186005F100404946FEF75E
:1026F000C1F8814616493046FEF7BCF804464FF053
:102700007C512846FEF7B6F8054601462046FDF7FF
:10271000A7FF4146FEF7AEF801464846FDF7A0FF89
:10272000064604F100402946FDF79AFF3946FEF7B8
:10273000A1F801463046FDF793FF0449FEF79AF8E9
:102740000B9B1860BDE8F88FD7B35D3FABAA2A3F5B
:10275000D7B35DBF2DE9F8430446884617461D46AA
:102760001A463946404601F07FFB06462A4639465E
:10277000404601F062FB01463046FDF773FF4FF023
:102780007C51FEF777F8064601464046FDF768FFA4
:102790004FF07C51FEF76EF82146FEF71FF94FF01F
:1027A00000091D49FDF75EFF494601F034FBDFF8E3
:1027B0006C80414601F038FB089B18603146384672
:1027C000FDF74EFF4FF07C51FEF754F82146FEF71F
:1027D00005F91149FDF746FF494601F01CFB41464A
:1027E00001F022FB099B186031462846FDF738FFAF
:1027F0004FF07C51FEF73EF82146FEF7EFF8064910
:10280000FDF730FF494601F006FB414601F00CFBA5
:102810000A9B1860BDE8F883D7A3F03ED7A3703FAA
:10282000F8B504460023C36503664366FFF712FE4E
:1028300000252E462F4607E02046FFF763FE63681B
:102840001F44A3681E440135B5F57A7FF4DB084ABE
:1028500082FB0731FB17C3EBA113C4F89C3082FB4A
:102860000632F317C3EBA213C4F8A030F8BD00BFC3
:10287000D34D621070B50546324BC0F88030C0F8B9
:102880008430314CA66831493046FDF7F3FFA86724
:10289000E8672F493046FDF7EDFF2E49FDF7EAFFC7
:1028A00001464FF07E50FDF7DBFE01464FF07E50B3
:1028B000FEF794F801464FF07E50FDF7D1FEC5F8C3
:1028C0008C00254BC5F88830244B1B68C5F8D430E4
:1028D000A66B4FF07F51A06AFDF7CCFF0146304652
:1028E000FEF77CF8C5F890001D49E068FEF76AF92C
:1028F00018B11C4B6B67002421E01B4B6B67FAE798
:102900002046FDF763FF4FF03C41FDF7B3FF174949
:10291000FEF764F8FDF7D8FD0DF08EFB4FF0804216
:10292000134BFEF759FB0022124BFDF76FFCFDF72E
:1029300043FE04F1400305EB8303586001347F2C10
:10294000DEDD70BDEC51383D7097002082A8FB3869
:1029500017B7D137DB0FC940BD74933B709300208C
:1029600000002042FFFFA43CFFFF243D6F12033D07
:102970003333F33F0000F03F38B50446194B1D6870
:10298000E86AFDF71FFF4FF07C51FDF773FFFEF77C
:1029900073F9E863E86AFDF715FF4FF07C51FDF726
:1029A00069FFFEF769F96863E86AFDF70BFF4FF00E
:1029B0007C51FDF75FFFFEF75FF9A8630023C4F8C1
:1029C000AC30C4F8B030E36323646364C4F8983077
:1029D000C4F89430A3656365C4F8F4300023C4F8E8
:1029E000FC3038BD24990020F8B50446D0F8F450E6
:1029F000D0F888604FF07E51D0F8EC00FDF730FE43
:102A0000D4F8F010FDF72CFE01463046FDF732FFFA
:102A100001462846FDF726FEC4F8F400002631469C
:102A200001F002FA264B996901F1004101F0F3F936
:102A30000546C4F8F400D4F8B07031463846FEF7C5
:102A4000D5F8002837D04FF07E512846FDF712FF09
:102A500001463846FDF706FE064600213846FEF7D9
:102A6000A7F850BB00212846FDF704FF0146304679
:102A7000FDF7F8FD0646C4F8B000C4F8AC50D4F831
:102A800000010146FDF7F6FE074629462846FDF7F8
:102A9000F1FE01463846FDF7E3FD0DF007FB054664
:102AA0000146304601F0C0F905F1004101F0B3F9EB
:102AB000C4F8B000F8BD0021C7E74FF07E51D2E75F
:102AC000709700202DE9F04184B004460D46CF6D8B
:102AD000C7624B6E43638D4E716C286EFDF77EFFAF
:102AE0002063716CE868FDF779FFA06204F1400390
:102AF000019304F13C030093E369A26961693846DC
:102B0000FFF7B8FD8249606CFDF7B4FE05468149C8
:102B1000206CFDF7AFFE01462846FDF7A3FD60647B
:102B20007B49A06CFDF7A6FE05467A49E06BFDF7F0
:102B3000A1FE01462846FDF795FDA0647449606A30
:102B4000FDF798FE05467349206AFDF793FE01469E
:102B50002846FDF787FD60626F49FDF78BFE6F49E0
:102B6000FDF788FEC4F8EC00D4F8F010FDF778FD0E
:102B7000C4F8F800F268C4F8002104F1B00104F1CF
:102B8000AC0001F088F9E16BD4F8AC00FDF768FD0A
:102B90000546276C3946D4F8B000FDF761FD0646BE
:102BA000216D3846FEF722F800B127652946A06F4F
:102BB000FDF760FED4F89410FDF754FD0021FDF7F9
:102BC00051FD6065D4F8EC1001F02EF9D4F8EC104A
:102BD00001F1004101F01FF96065D4F89470D4F858
:102BE0008010A06FFDF746FE2946FDF743FE014623
:102BF0003846FDF737FDC4F89400D4F8EC1001F026
:102C000013F9D4F8EC1001F1004101F004F9C4F813
:102C10009400D4F8EC50D4F87C8031464046FDF75F
:102C200029FED4F898703946FDF71CFD0021FDF708
:102C300019FDA065D4F884104046FDF71BFE31460F
:102C4000FDF718FE01463846FDF70CFDC4F8980064
:102C5000294601F0E9F8D4F8EC1001F1004101F047
:102C6000DAF8C4F89800606D0146FDF703FE0746E8
:102C7000A66D31463046FDF7FDFD01463846FDF7AD
:102C8000F1FC0DF013FAC4F8F0002946304601F0CB
:102C9000CBF805F1004101F0BEF8A065D4F8EC20B6
:102CA00004F1580104F1540001F0F5F8D4F82C8037
:102CB0001B49606BFDF7DEFD014604F16807A66D58
:102CC000656D4046FDF7CEFC04F17003019304F1FD
:102CD0006C0300933B4632462946FFF767FC04F13C
:102CE0006403029304F16003019304F15C03009315
:102CF000236FE26EA16ED4F8EC00FFF72BFD2046A7
:102D0000FFF7A8FB04B0BDE8F08100BF709700207A
:102D10006666663FCDCCCC3DD7A3703F3ACD133F1E
:102D200051491D3870B504462949D0F8BC00FDF75B
:102D3000A1FD05462749D4F8E800FDF79BFD0146B3
:102D40002846FDF78FFC0546C4F8BC00D4F8E060C7
:102D5000A16AD4F8D800FDF783FC01463046FDF7A0
:102D600089FD01462846FDF77DFC0546D4F8E46060
:102D7000216BD4F8DC00FDF773FC01463046FDF70B
:102D800079FD01462846FDF76DFC0546124B596C4E
:102D9000986BFDF76FFD0146D4F800612846FDF7FA
:102DA0001DFE314601F040F8D4F8001101F1004158
:102DB00001F031F8C4F8B0000849206AFDF716FFA9
:102DC00010B10023C4F8B0300023C4F8AC3070BD9B
:102DD0006666663FCDCCCC3D709700200000204257
:102DE0000023C0F8E830C0F8E030C0F8E430C0F8A4
:102DF000D830C0F8DC30C0F8B030704710B50446A9
:102E00000378052B06D8DFE803F003200C0506093C
:102E10000123C37010BD0123C370FBE70123C370FE
:102E2000F8E70123C3700D4B18689988FFF7BDF9C7
:102E30000B4C2046FFF7A0FD00222021094803F09B
:102E40004FF82046FFF7CCFFE4E7044B1868998859
:102E5000FFF7ABF90123E370DCE700BF5C8D0020D6
:102E6000549000200008024008B50C4805F038F8DE
:102E70000B4805F035F80B4805F032F80A4805F024
:102E80002FF80A4805F02CF8094805F029F80948F8
:102E900005F026F8084805F023F808BD140F0108CE
:102EA000B0090108C0090108D4090108F0090108A6
:102EB000000A0108180A0108340A01082DE9F04146
:102EC00084B0674805F00CF8664B0193664B00939D
:102ED000664B674A6749684805F002F8674807F09B
:102EE00043FF674CDFF89C81674D606CFDF7ECFA9F
:102EF000CDE90201654F00974346654A654928467A
:102F000004F0EEFFA06BFDF7DFFACDE902010097B8
:102F10004346614A6149624804F0E2FF614807F0B4
:102F200023FFA068FDF7D0FACDE902015E4B0093C4
:102F30005E4B5F4A5F49284604F0D2FF5E4EE06870
:102F4000FDF7C2FACDE902015C4B009333465C4ABF
:102F50005C49284604F0C4FF206DFDF7B5FACDE9C1
:102F6000020100973B46584A5849284604F0B8FFEA
:102F7000A06DFDF7A9FACDE9020100973B46544A3E
:102F80005449284604F0ACFFE06DFDF79DFACDE909
:102F90000201514B00933346504A5149284604F0F0
:102FA0009FFF206EFDF790FACDE902014D4B009393
:102FB00033464D4A4D49284604F092FFA069FDF77B
:102FC00083FACDE902014A4B00933346494A4A4904
:102FD000284604F085FF606AFDF776FACDE9020124
:102FE000464B00933346464A4649284604F078FF4C
:102FF000A06CFDF769FACDE90201434B009333461B
:10300000424A4349284604F06BFF424807F0ACFEB1
:10301000414D424C63680193414E00964346414AFC
:103020004149284604F05CFFA3680193009643469B
:103030003E4A3F49284604F053FFE36801933D4B65
:10304000009343463C4A3D493D4804F049FF3D4812
:1030500004F046FF3C4804F043FF04B0BDE8F081B3
:103060004C0A0108A00A0108B00A0108680A010810
:103070006C0A0108780A0108800A0108B40A0108EC
:1030800070970020C00A0108D40A0108F40A010858
:10309000C40A0108D00A0108F80A0108100B010847
:1030A000140B0108340B0108640B0108440B0108E0
:1030B000480B0108600B01086C0B0108880B010824
:1030C000700B0108840B0108900B0108AC0B010880
:1030D000B00B0108D00B0108F40B0108D40B010858
:1030E000F00B0108200C0108FC0B01081C0C010866
:1030F0003C0C0108240C0108F00F01085C0C0108CD
:10310000440C0108F0110108800C0108640C01084E
:103110007C0C0108880C0108A00C010870930020A9
:10312000C00C0108940C01089C0C0108C40C010897
:10313000D00C0108140D0108D40C0108F40C01088E
:10314000F80C01081C0D0108680D010808B503788A
:10315000042B06D8DFE803F0031709050600FFF784
:1031600083FE08BDFFF7AAFEFBE7012220211048DD
:1031700002F0B6FE0F48FFF7FFFB0F4B1868998867
:10318000FEF7FFFFEDE70D4B002183F8221083F8D7
:10319000211019740A48C0F8D8104FF40072DC30BE
:1031A00009F0DCFA044B18689988FEF7EAFFD8E7C3
:1031B00000080240549000205C8D00205008002040
:1031C000648D002030B583B00446437B613B172BF0
:1031D00000F24681DFE813F0BD001800A8000801E6
:1031E00044017400D20093004B004401E4005F00EE
:1031F0005500440144011A0144014401440189007D
:1032000044012F014401F600043004F061FEFDF793
:10321000D3F998490DF08EFA97490DF077FA974B4C
:103220009860FDF751F902460B46954804F058FEA8
:10323000944B1A6900920FCB01F02EF8002800F091
:103240001481904D284601F02FF8284601F080F8AF
:103250002B69009395E80F0001F050F8FFF72EFE60
:103260000023237363736360A36003B030BD043035
:1032700004F032FE0146844B5860844804F030FE6E
:10328000D6E7043004F028FE01467F4B9860804862
:1032900004F026FECCE7043004F01AFEFDF78CF9AA
:1032A0007C490DF047FA00210DF030FA734BD860DD
:1032B000FDF70AF902460B46774804F011FEB7E71E
:1032C000043004F005FEFDF777F974490DF032FA89
:1032D00000210DF01BFA694B9861FDF7F5F80246E5
:1032E0000B466F4804F0FCFDA2E7043004F0F4FD47
:1032F0000146654BD8606B4804F0F2FD98E7043056
:1033000004F0E6FDFDF758F967490DF013FA0021C6
:103310000DF0FCF9594B1862FDF7D6F802460B4642
:10332000624804F0DDFD83E7043004F0D1FDFDF7D1
:1033300043F95F490DF0FEF900210DF0E7F94F4B1D
:103340005862FDF7C1F802460B465A4804F0C8FD22
:103350006EE7043004F0BCFDFDF72EF956490DF080
:10336000E9F900210DF0D2F9444B9864FDF7ACF86F
:1033700002460B46514804F0B3FD59E7043004F00F
:10338000A7FDFDF719F94E490DF0C0F93B4B586404
:10339000FDF79AF802460B464A4804F0A1FD47E7BC
:1033A000043004F095FDFDF707F947490DF0AEF93B
:1033B000324B9863FDF788F802460B46434804F009
:1033C0008FFD35E7043004F083FDFDF7F5F80021AB
:1033D0000DF09CF9294BD865FDF776F802460B46AF
:1033E0003B4804F07DFD23E7043004F071FDFDF758
:1033F000E3F800210DF08AF9204B1866FDF764F818
:1034000002460B46334804F06BFD11E7043004F02C
:103410005FFDFDF7D1F800210DF078F9174A10652E
:1034200000F10043D364FDF74FF802460B462A48EB
:1034300004F056FDFCE6043004F04AFDFDF7BCF84C
:1034400000210DF063F90D4A906500F100435365CA
:10345000FDF73AF802460B46204804F041FDE7E646
:10346000011D1F4804F03CFDE2E6064800F00DFF98
:10347000E7E600BF0000FA440000C8427097002051
:10348000940D01085C93002070930020A80D0108A2
:10349000BC0D010800009642D40D01080000044252
:1034A000E80D0108000E010800001643180E01087F
:1034B00000002042300E01080000A041480E010823
:1034C0006F12833A5C0E010817B7D1386C0E0108F1
:1034D0007C0E0108900E0108A40E0108B80E010828
:1034E000CC0E01081B2907D010B582B003783BB180
:1034F000042B78D002B010BD00234370C370704716
:1035000063391729F6D801A353F821F06D35000867
:10351000F534000881350008F5340008F53400085A
:10352000F5340008F5340008F5340008F5340008D7
:10353000F534000877350008F5340008F534000844
:10354000F5340008F5340008F53400088B35000820
:10355000F5340008F5340008F5340008F5340008A7
:10356000F5340008F5340008953500080123437050
:103570000023C370BEE7022343700023C370B9E782
:10358000052343700023C370B4E704234370002372
:10359000C370AFE71B4C0023C4F8D4301A4920464F
:1035A00000F034FDA26F194B1A61194B1A69009291
:1035B0000FCB00F071FE90B1154C204600F074FE68
:1035C000204600F0C5FE2369009394E80F0000F048
:1035D00095FE0E4B19690F4804F082FC8AE70C48EF
:1035E00000F053FEE8E70D2905D0037B33B94173A2
:1035F000013303737EE7FFF7E5FD7BE75A1E0244C4
:103600001171F5E7648D002017B7D1377093002052
:103610005C930020F40E01082DE9F04383B00446CA
:10362000427803789A4218D12378022B78D0052B60
:1036300000F09680012B40F08C804C4B93F82130A9
:10364000B3B14A4B93F82230D3B94949D1F8C030CD
:10365000464A4848FEF7BEF97BE0FFF7CFFBE37828
:10366000002BE1D0637823702046FFF76FFDDBE786
:103670003F49D1F8C0303D4A3E48FEF7F7F868E0D0
:103680003A4DEE693C4F7E61DFF8E880D8F86890EB
:103690007042FDF79BF801464846FDF7EBF84FF006
:1036A0006051FDF7E7F84FF07E510CF0A5FC33496F
:1036B000FDF7E0F8FCF708FF02460B4631463048BC
:1036C00004F00EFC05F500452C354FF4007632462B
:1036D000294608F1DC00FDF75BFB3246294607F17D
:1036E0001800FDF755FB274B1A6900920FCB00F02D
:1036F000D3FD88B1234D284600F0D6FD284600F0C2
:1037000027FE2B69009395E80F0000F0F7FD1B21C1
:103710002046FFF7E7FE1CE01A4800F0B6FDE9E797
:10372000154BDB68002B04DD114AD2F8C42093420C
:1037300012DB0F4C2046FFF7F5FA2046FFF754F94D
:103740000C492046FFF7BEF9D4F8C4300133C4F861
:10375000C43003B0BDE8F0830548FFF741FBE8E75C
:103760006421044800F056FDF3E700BF5008002034
:1037700054900020648D002070930020DB0FC9401E
:103780001C0F01085C9300202DE9F0418AB0002451
:103790000594069407940894099401942C4B1A6B91
:1037A00042F004021A631A6B02F004020192019AB9
:1037B00002941A6B42F080021A631A6B02F08002C4
:1037C0000292029A03941A6B42F001021A631A6B76
:1037D00002F001020392039A04941A6B42F002026F
:1037E0001A631B6B03F002030493049BDFF86480ED
:1037F000224648F61001404602F072FB164D224662
:103800002021284602F06CFB4FF4005305934FF43F
:1038100004130693079405A9284602F06DFA48F6AA
:10382000100305930127069707940326089605A918
:10383000404602F061FA2023059306970794089604
:1038400005A9284602F058FA0AB0BDE8F08100BF89
:1038500000380240000002400008024030B595B038
:103860003422002107A808F079FF00240294039471
:1038700004940594069400941D4B1A6C42F08052F7
:103880001A641B6C03F080530093009B0194194B46
:103890001A6842F440421A601B6803F440430193E3
:1038A000019B012307934FF48033089302250D9564
:1038B0004FF480030E9304230F93B42310931195B8
:1038C0001295139507A802F0EDFC02F00FFB0F23F1
:1038D0000293039504944FF4A05305934FF480533F
:1038E0000693052102A802F03FFB15B030BD00BFD2
:1038F00000380240007000402DE9F04389B001F02B
:103900004BFAFFF7ABFFFFF73FFF01F081F901F042
:10391000F5F8FEF73BFA00F021FD00F043FDFDF75E
:1039200079FEFDF7BFFEFDF7F1FE904C0621204623
:1039300000F0A4FC2369009394E80F0000F0DEFC83
:103940008B4B5B69B3F1FF3F00F01182884B1B6921
:10395000B3F1FF3F00F00F82864B9C682146204662
:10396000FDF74EF920B984492046FDF717F910B14B
:10397000804B824A9A607F4BDC6821462046FDF7E7
:103980003FF920B97C492046FDF708F910B1794B81
:103990007B4ADA60774B9C6921462046FDF730F977
:1039A00020B975492046FDF7F9F810B1714B002296
:1039B0009A616F4B5B68B3F1FF3F00F0E0816C4BA5
:1039C0009B68B3F1FF3F00F0DE81694BDB68B3F128
:1039D000FF3F00F0DC81674BDC6921462046FDF7A4
:1039E0000FF920B964492046FDF7D8F810B1614BB2
:1039F0000022DA615F4B1C6A21462046FDF700F980
:103A000020B95D492046FDF7C9F810B1594B5D4A10
:103A10001A62584B5C6A21462046FDF7F1F820B93E
:103A200055492046FDF7BAF810B1524B564A5A6232
:103A3000504B9C6C21462046FDF7E2F820B94E49D8
:103A40002046FDF7ABF810B14A4B504A9A64494BF7
:103A50009C6A21462046FDF7D3F820B94649204606
:103A6000FDF79CF810B1434B494A9A62414B5C6C9C
:103A700021462046FDF7C4F820B93F492046FDF70E
:103A80008DF818B13B4B4FF07E525A64394B9C6B0A
:103A900021462046FDF7B4F820B937492046FDF706
:103AA0007DF818B1334B4FF07E529A63314BDC6D89
:103AB00021462046FDF7A4F820B92F492046FDF7FE
:103AC0006DF810B12B4B334ADA652A4B1C6E214638
:103AD0002046FDF795F820B927492046FDF75EF806
:103AE00010B1244B294A1A66224B186D0146FDF786
:103AF00087F8002840F050811E4BD86C0146FDF736
:103B00007FF8002840F04C811A4B986D0146FDF774
:103B100077F8002840F04881164B586D0146FDF7B4
:103B20006FF8002840F0448100224FF080431A488B
:103B300004F0D6F91948FEF79DFE4FF438720021C3
:103B4000174808F00BFE0A490B69164CC4F8D4302C
:103B50004B69C4F8D830074DAB6AA3664FF40072C6
:103B6000183104F1DC00FDF713F91DE05C9300202F
:103B70007093002070970020000080BF00007A44FE
:103B8000000020420000FA42000060410000A04016
:103B90000000A8410000FA43300F010854900020B3
:103BA0007C8A0020648D00206421204600F002FA07
:103BB000824801F0F7F9824801F0F4F9814801F0F8
:103BC000F1F9814C01221021204602F089F90122ED
:103BD0004FF40061204602F083F9012001F008F95A
:103BE000012001F005F9794901240694002205928B
:103BF00004920392029201940092134603C9FEF7C5
:103C000049FA204601F0F4F87149E868FCF7DAFF58
:103C1000002800F0D18003276C4E00250695012472
:103C200005940494039402954FF00308CDF80480A2
:103C3000009523462A4696E80300FEF775FA2046CB
:103C400001F0D6F806950595049503950294019721
:103C5000009523462A4696E80300FEF765FA2046BB
:103C600001F0C6F85B4F3846FEF7DAFD204601F05A
:103C7000BFF805230293CDF8048000942B4622461A
:103C800096E80300FEF733FA204601F0B1F896E813
:103C90000300FEF78AFA204601F0AAF8D7F8A02020
:103CA000D7F89C104C4804F01BF94C4E294630467E
:103CB00003F0F8FA0421304603F0F4FA0821304604
:103CC00003F0F0FA4648FEF7C1F84648FEF7D8F888
:103CD000454801F0AFFC2A462946192001F07CFF37
:103CE00022462146142001F077FF404B06221A702D
:103CF0005D70DC7022463E493E4803F06EFF304660
:103D000002F0CCFF642001F073F8304B93E803001D
:103D1000FEF760FA354B1B78022BF3D12D4BD3F80D
:103D2000DC60D3F8E070D3F8E480D3F8E890D3F8FF
:103D3000D800FCF7C9FB04460D464846FCF7C4FB17
:103D4000CDE906014046FCF7BFFBCDE9040138464A
:103D5000FCF7BAFBCDE902013046FCF7B5FBCDE933
:103D6000000122462B46244804F0BAF8CAE7234B48
:103D700000225A61EAE5214B00221A61ECE51F4B53
:103D800001225A601BE61D4B00229A601DE61B4B68
:103D90004FF47A72DA601EE6194B1A4A1A65ABE6DE
:103DA000174B194ADA64AFE6154B184A9A65B3E621
:103DB000134B174A5A65B7E602272DE76C07002018
:103DC00024070020DC060020000002405C8D00205B
:103DD0000000204254900020540F01082499002034
:103DE000E007002030080020B407002044900020A5
:103DF000DC0700206C9900207C0F010870930020E4
:103E00007097002000004841000048C10000824235
:103E1000000082C2704738B505460C46FCF7E6FE46
:103E200000B12C46204638BD38B505460C46FCF797
:103E3000BFFE00B12C46204638BD70B506460D4683
:103E40001446FCF7D3FE38B121463046FCF7CEFECF
:103E500000B13446204670BD21462846FCF7C6FE18
:103E60000028F7D02C46F5E770B506460D461446F7
:103E7000FCF79EFE38B121463046FCF799FE00B1B2
:103E80003446204670BD21462846FCF791FE0028A6
:103E9000F7D02C46F5E72DE9F04106460C461546CD
:103EA000D0F8008041464046FCF7E4FC0746206815
:103EB0000146FCF7DFFC01463846FCF7D3FB0CF06B
:103EC000F5F807462946FCF791FE78B129464046A9
:103ED000FCF7D0FC3946FCF781FD306029462068AC
:103EE000FCF7C8FC3946FCF779FD2060BDE8F0819D
:103EF000F8B505460F461E461046FCF7B1FB0446D2
:103F000039462846FCF7ACFB05460120B040013895
:103F1000FCF75CFC01462846FCF7ACFC2146FCF7AC
:103F20005DFDFCF783FEF8BDF8B507460C461E465E
:103F30001046FCF795FB05463846FCF747FC29463A
:103F4000FCF798FC05460120B0400138FCF73EFC28
:103F500001462846FCF742FD2146FCF783FBF8BDED
:103F600010B50C490CF048F804460021FCF720FE7F
:103F700048B909492046FCF77DFCFCF757FE074B82
:103F800053F8200010BD03492046FCF76BFB0446A4
:103F9000EFE700BFDB0FC94083F9A24274120108AA
:103FA00008B501460248FCF75BFBFFF7D9FF08BDE7
:103FB000DB0FC93FF0B583B006460F4600251DE074
:103FC0000022344624F8022B4FF400410D4801F042
:103FD00087FF642300930123224631460A4802F0FA
:103FE0007AFC094B93F85130DBB2022BF9D0012255
:103FF0004FF40041034801F073FF0135BD42DFDBA0
:1040000003B0F0BD00000240709800202DE9F0419F
:1040100082B004460D464368836013230AE05A1CAD
:1040200004EB8202D2F804C09A1C04EB8202C2F8AC
:1040300004C0013B002BF2DC0022264626F8022BAE
:104040004FF400416A4801F04BFF642300930123C1
:1040500032462146674802F03EFC664B93F85130E9
:10406000DBB2022BF9D001224FF40041604801F08D
:1040700037FF62886267531203F1360104EB810156
:104080004F680133594203F07F0301F07F0158BFAD
:104090004B42363304EB83035B68DB1BC2F308013E
:1040A00001FB03F307EB63271744A767524B18691B
:1040B000381AFCF78BFB4FF06051FCF7DBFB064630
:1040C0006060FCF7B3FDFCF781FB01463046FCF76E
:1040D000C7FA4A49FCF7CEFB064660600021FCF7B0
:1040E00067FD002834D16660D4F86880424B586977
:1040F000381AFCF76BFB01464046FCF7BBFB4FF060
:104100006051FCF7B7FB0746E065FCF78FFDFCF755
:104110005DFB01463846FCF7A3FA3849FCF7AAFBD9
:104120000746E0650021FCF743FDB8B9E765A168E3
:104130003046FCF795FA07463149FCF757FD98B928
:1041400030493846FCF734FD002845D100220DE007
:104150002A493046FCF786FA0646C4E7274938461E
:10416000FCF780FA0746E1E74FF0FF32D4F88030E1
:104170001344C4F8803094F8DC326BB9C4F8803052
:1041800021493046FCF732FD40B34FF0FF33C4F80D
:104190008030012384F8DC32D4F88000FCF716FB71
:1041A0001649FCF767FB3146FCF75CFAE060A16D4D
:1041B000FCF756FA064615492846FCF75BFB014614
:1041C0003046FCF70BFC014620664046FCF752FBEC
:1041D000606602B0BDE8F0810122C7E70C493046B5
:1041E000FCF7E6FC0028D4D00123C4F88030D0E7E7
:1041F000000002407098002070930020DB0FC9403F
:10420000DB0F4940DB0F49C0DB0FC93F000098417D
:10421000DB0FC9BF10B50446416F124803F060FEC2
:10422000A16F114803F05CFE6068FCF74DF902468F
:104230000B460E4803F054FEE068FCF745F90246D1
:104240000B460B4803F04CFEE06DFCF73DF90246CF
:104250000B46084803F044FED4F88010064803F0EB
:104260003FFE10BD980F0108A00F0108B80F01080C
:10427000CC0F0108E00F0108F40F010838B504461F
:104280000D46FEF77FF8E56038BD10B50446FEF731
:1042900087F80123237410BD84B08DE80F009DF8CA
:1042A000100004B07047000030B583B0054600240C
:1042B00009E0104B53F824300093234695E807009B
:1042C000FEF782F80134FF2CF3DD0BE0A4F58072D9
:1042D000094B53F822300093234695E80700FEF778
:1042E00082F80134B4F5A07FF0DB00232B7403B017
:1042F00030BD00BF709300207097002084B038B5A7
:1043000004AC84E80F00002408E0234604AA07CA8E
:10431000FEF780F80C4B43F824000134FF2CF4DD49
:104320000AE0A4F58075234604AA07CAFEF782F8BE
:10433000064B43F825000134B4F5A07FF1DBBDE85E
:10434000384004B0704700BF709300207097002081
:1043500008B500220274FEF755F808BD08B50F48ED
:104360000F4B03604FF482734360002383604FF46C
:104370000062C2600361012242614FF400728261F7
:104380002822C2610362436283620A23C36202F08D
:1043900043FA00B908BDFFF73DFDFBE7C8980020D0
:1043A0000030014008B50E480E4B03604FF4827395
:1043B0004360002383604FF40062C2600361436185
:1043C0004FF400728261C3610362436283620A2315
:1043D000C36202F021FA00B908BDFFF71BFDFBE73D
:1043E00070980020003C004000B58BB0002305937E
:1043F00006930793089309930368284A934205D0CC
:10440000274A934225D00BB05DF804FB00210191AF
:10441000244B5A6C42F480525A645A6C02F4805213
:104420000192019A02911A6B42F001021A631B6B0E
:1044300003F001030293029BE023059302230693FA
:10444000032308930523099305A9174801F054FC99
:10445000D9E700210391134B1A6C42F400421A640D
:104460001A6C02F400420392039A04911A6B42F010
:1044700004021A631B6B03F004030493049B4FF4C0
:10448000E05305930223069303230893062309931D
:1044900005A9064801F030FCB5E700BF0030014037
:1044A000003C00400038024000000240000802408A
:1044B000054B1B69002B00DB7047034B034A5A6016
:1044C00002F188325A60F7E7003C02402301674559
:1044D000024A136943F0004313617047003C0240F5
:1044E000014BD860704700BF003C0240124BDB68B4
:1044F00013F4803F15D1104BDB6813F0100F12D16D
:104500000D4BDB6813F4807F0FD10B4BDB6813F08E
:10451000E00F0CD1084BDB6813F0020F09D0082024
:10452000704701207047062070470220704707201F
:1045300070470920704700BF003C024000B583B0BF
:1045400009238DF80730FFF7D1FF8DF8070003E04E
:10455000FFF7CCFF8DF807009DF80730DBB2012B89
:10456000F6D09DF8070003B05DF804FB70B5044673
:10457000012904D0022905D059B9002604E04FF4DE
:10458000807601E04FF40076FFF7D8FF092803D0CA
:1045900070BD4FF44076F7E70F4D2B6923F440735D
:1045A0002B612B6933432B612B6923F0F8032B61BB
:1045B0002B69234343F002032B612B6943F48033BF
:1045C0002B61FFF7BBFF2B6923F002032B612B69E3
:1045D00023F0F8032B61DBE7003C024070B5054691
:1045E0000C46FFF7ABFF092800D070BD0A4E3369B7
:1045F00023F440733361336943F4007333613369E7
:1046000043F0010333612C60FFF798FF336923F017
:1046100001033361E9E700BF003C024000B583B00D
:10462000002100910C4B5A6C42F480425A645A6C3F
:1046300002F480420092009A01911A6C42F080527A
:104640001A641B6C03F080530193019B072001F057
:10465000B1FA03B05DF804FB003802407047FEE792
:10466000FEE7FEE7FEE770477047704708B500F0C9
:10467000ADFB08BD2DE9F04F97B0474D284601F03E
:104680003DF9464C234604F10B020021284601F077
:104690007DF8434B5F68434AD668434BD3F8449058
:1046A000D2F86080DFF804B1996BDBF84400FCF7C6
:1046B000E1F8824649464046FCF790F98046494673
:1046C0003046FCF78BF91390FFB2394EDBF82430FB
:1046D000019351464846FCF7CDF800904346139AA3
:1046E00039463046FDF7D8FB15AB721C06F10801C0
:1046F000284600F0CDFF14F80139A2781340E27883
:104700001340257903EA050266793240A079024018
:10471000E1790A40247AFF2A08BFFC2C18D03540E2
:104720002B4018400140FF2914BF00210121FD2C1E
:1047300014BF002301F001038BB9FE2C14BF00212C
:1047400001F0010181B17A211A48FEF7CBFE03E0A6
:104750006D211848FEF7C6FE17B0BDE8F08F1B218B
:104760001448FEF7BFFEF7E7134E144F10976C4640
:1047700006F110050FCD0FC40FCD0FC40FCD0FC420
:1047800095E80F0084E80F0096E80F00FDF7C6FBE0
:10479000002347F8143CDFE7B4070020E1070020BE
:1047A00070930020648D00207097002054900020AA
:1047B0003008002044900020E00700202C910020C9
:1047C00010B5064C204603F0ADF8054B19780548A6
:1047D000FEF788FE204603F0A5F810BD6C99002076
:1047E000DC070020449000202DE9F04F95B0504B9D
:1047F00003F10B0200214F4800F0C8FF10B115B0C3
:10480000BDE8F08F4C4B5C684C4AD2F80CB04C4B76
:104810005F6C166E4B4D996B286DFCF72BF880463C
:10482000D5F8EC90D5F8F0A039463046FCF7D6F82C
:10483000064639465846FCF7D1F805465FFA84FB30
:10484000414C51464846FBF70BFF01904146384624
:10485000FCF710F8009033462A4659462046FDF7EB
:104860001BFB13AB621C04F10801324800F010FF7F
:10487000364B5A7899780A40D9780A4093F804E080
:1048800002EA0E015C79214093F806C001EA0C01AE
:10489000D87901401B7AFF2908BFFC2B1CD00EEAF7
:1048A000040E02EA0E020CEA020C00EA0C00FF28D9
:1048B00014BF00200120FD2B14BF002200F00102D4
:1048C0007AB9FE2B14BF002000F0010070B17A21EC
:1048D0001F48FEF707FE92E76D211D48FEF702FE16
:1048E0008DE71B211A48FEF7FDFD88E7174D194C8F
:1048F0001094EC4605F1100EBEE80F00ACE80F0076
:10490000BEE80F00ACE80F00BEE80F00ACE80F00F7
:104910009EE80F008CE80F0095E80F00FDF7FEFA07
:10492000002244F8142C54F8982C44F8882C66E79C
:10493000E1070020B407002070930020648D002060
:10494000709700205490002030080020E0070020DD
:10495000449000202C91002010B50B4C2046FDF710
:10496000D1FD0A490A48FFF751FB0A48FEF754FEF9
:10497000FFF73AFFD4F8C0300133C4F8C03006481E
:1049800002F0D6F910BD00BF5490002017B7D13700
:10499000648D00204490002024990020012070475D
:1049A00008B507F0B1FF162303604FF0FF3008BDD4
:1049B00008B54FF0FF31FFF7F3FFFEE770B50C4687
:1049C0001646002506E0AFF30080214601F8010BF2
:1049D00001350C46B542F6DB304670BD70B50C466D
:1049E0001646002504E014F8010B00F069F90135C2
:1049F000B542F8DB304670BD4FF0FF3070474FF4E2
:104A000000534B6000207047012070470020704722
:104A100008B503460B4A126842B10A4A10680344BB
:104A20006A46934206D8074A136008BD054A0649FC
:104A30001160F2E707F068FF0C2303604FF0FF30CE
:104A4000F3E700BF20990020C89C0020024B4FF0E4
:104A500000629A60704700BF00ED00E002680E4BF4
:104A60009A4200D0704700B583B00021019103F550
:104A70009C335A6C42F001025A645B6C03F00103F0
:104A80000193019B0A46192001F0A6F8192001F0B4
:104A9000B3F803B05DF804FB0000014000B587B037
:104AA0000023019302930393049305930268104B30
:104AB0009A4202D007B05DF804FB002300930D4B2F
:104AC0001A6B42F001021A631B6B03F0010300939F
:104AD000009B4FF4E06301930223029303230493AA
:104AE0000123059301A9044801F006F9E2E700BF9C
:104AF00000000140003802400000024030B597B08D
:104B000000241294139414941594109411940994FD
:104B10000A940B940C940D940E940F9420252A461D
:104B2000214601A807F01AFE3748384B036044605D
:104B3000856040F6CA03C36004610123436180239A
:104B4000836102F017FA002846D14FF48053129384
:104B500012A92D4802F018FB002840D12A4802F083
:104B600035FA00283ED100231093119310A926484E
:104B700002F01AFC002838D16023099300220A921F
:104B800002230B930C9204230D930E920F9209A90A
:104B90001D4802F07FFA58BB042209A91A4802F006
:104BA00079FA40BB082209A9174802F073FA28BB1A
:104BB0000023019302930393049305934FF400524F
:104BC0000692089301A9104802F034FCC8B90E48B7
:104BD000FFF764FF17B030BDFFF71CF9B5E7FFF72B
:104BE00019F9BBE7FFF716F9BDE7FFF713F9C3E7BC
:104BF000FFF710F9D0E7FFF70DF9D3E7FFF70AF950
:104C0000D6E7FFF707F9E2E724990020000001400A
:104C100008B50A480A4B03604FF4E13343600023B0
:104C20008360C36003610C2242618361C36102F04F
:104C300055FD00B908BDFFF7EDF8FBE76C990020C2
:104C40000044004010B588B00023039304930593FB
:104C5000069307930268184B9A4201D008B010BD22
:104C60000024019403F5FA331A6C42F400321A64FA
:104C70001A6C02F400320192019A02941A6B42F00B
:104C800001021A631B6B03F001030293029B0C23C6
:104C9000039302230493032306930723079303A993
:104CA000064801F029F822462146262000F094FF0C
:104CB000262000F0A1FFD1E70044004000000240A0
:104CC00000B583B001904FF6FF73012201A903489C
:104CD00002F033FD002003B05DF804FB6C99002066
:104CE00008B501220249034802F077FF08BD00BF62
:104CF000DC0700206C990020DFF834D00D480E4905
:104D00000E4A002302E0D458C4500433C4188C4225
:104D1000F9D30B4A0B4C002301E013600432A2428A
:104D2000FBD3FFF793FE07F0F5FDFEF7E5FD7047B7
:104D30000000022000000020C0060020741E0108B0
:104D4000C0060020C89C0020FEE7000010B5044605
:104D50000E4B1A784FF47A73B3FBF2F30C4A1068D7
:104D6000B0FBF3F000F056FF68B90F2C01D9012019
:104D70000AE0002221464FF0FF3000F02DFF054BE6
:104D80001C60002000E0012010BD00BF04000020D6
:104D9000000000200800002008B50B4B1A6842F400
:104DA00000721A601A6842F480621A601A6842F44B
:104DB00080721A60032000F0FDFE0020FFF7C6FF9E
:104DC000FFF72CFC002008BD003C0240034A11689C
:104DD000034B1B780B441360704700BFB099002051
:104DE00004000020014B1868704700BFB0990020F4
:104DF00038B50446FFF7F6FF0546B4F1FF3F02D091
:104E0000044B1B781C44FFF7EDFF401BA042FAD374
:104E100038BD00BF040000204A4B5A6822F44032DB
:104E20005A605A6841680A435A600268536823F41A
:104E30008073536002685368016943EA0123536039
:104E40000268536823F040735360026853688168B6
:104E50000B4353600268936823F400639360026815
:104E60009368C1680B439360826A374B9A4257D06C
:104E70000268936823F07063936002689368816AA4
:104E80000B4393600268936823F040539360026879
:104E90009368C16A0B4393600268936823F002032E
:104EA000936002689368017E43EA4103936090F83F
:104EB0002030002B3FD00268536843F400635360F6
:104EC0000268536823F46043536001684B68426A88
:104ED000013A43EA42334B600268D36A23F4700319
:104EE000D3620168CB6AC269013A43EA0253CB62DA
:104EF0000268936823F4007393600268936890F8E3
:104F0000301043EA412393600268936823F480637E
:104F1000936002689368416943EA81239360704714
:104F20000268936823F0706393600268936823F0CB
:104F300040539360B0E70268536823F40063536002
:104F4000CAE700BF002301400100000F38B310B5CD
:104F50000446036C43B1236C13F0100F0BD00120F7
:104F6000002384F83C3010BDFCF702FC002363648E
:104F700084F83C30EFE7236C23F4885323F00203DA
:104F800043F0020323642046FFF746FF00206064DD
:104F9000236C23F0030343F001032364E0E70120C3
:104FA0007047000082B00023019390F83C30012B41
:104FB00000F08980012380F83C3003689A6812F081
:104FC000010F13D19A6842F001029A60414B1B68AD
:104FD000414AA2FB03239B0C03EB4303019302E032
:104FE000019B013B0193019B002BF9D1026893685F
:104FF00013F0010F5CD0036C23F4E06323F0010392
:1050000043F480730364536813F4806F05D0036C1A
:1050100023F4405343F480530364036C13F4805F20
:105020001BD0436C23F006034364002380F83C301C
:105030006FF022031360294B5B6813F01F0F27D119
:105040000368274A934211D002F58072934207D039
:10505000244A934214D0002033E000234364E4E761
:1050600002F50072526812F01F0FF1D19A6812F027
:10507000405F2AD19A6842F080429A60002020E086
:1050800002F58072526812F0100FEFD0002018E085
:105090000368134A934201D0002012E09A6812F08C
:1050A000405F14D19A6842F080429A60002008E084
:1050B000036C43F010030364436C43F00103436447
:1050C000002002B070470220FBE70020F9E7002033
:1050D000F7E700BF0000002083DE1B4300230140F0
:1050E000002001400022014070B504460D460368CF
:1050F0009A6812F4806F03D09B6813F4807F19D1F3
:10510000FFF770FE064623681A6812F0020F20D1DE
:10511000B5F1FF3FF7D0B5B923681B6813F0020F54
:10512000F1D1236C43F004032364002384F83C3062
:10513000032032E0036C43F020030364002380F873
:105140003C30012029E0FFF74DFE801BA842DAD950
:10515000E2E76FF012021A60236C43F400732364D9
:1051600023689A6812F0405F16D1207EB0B9DA6ADF
:1051700012F4700F03D09B6813F4806F0DD1236C71
:1051800023F480732364236C13F4805F05D1236CB4
:1051900043F00103236400E0002070BD0020FCE721
:1051A0000368D86C7047000030B482B000220192CE
:1051B00090F83C20012A00F0C0800346012280F8CC
:1051C0003C200A68092A40D90468E06892B202EBE0
:1051D00042021E3A4FF0070C0CFA02F220EA0202D9
:1051E000E2601C68E0680A8802EB42021E3A8D68A1
:1051F00005FA02F20243E2604A68062A3CD81C68BB
:10520000606B02EB8202053A4FF01F0C0CFA02F2BF
:1052100020EA020262631C68606B4A6802EB820249
:10522000053AB1F800C00CFA02F202436263186852
:10523000434A904250D01868414A904259D00020C9
:1052400083F83C0002B030BC70470468206992B219
:1052500002EB42024FF0070C0CFA02F220EA0202C3
:1052600022611C6820690A8802EB42028D6805FAF7
:1052700002F202432261BFE70C2A16D81D68286B90
:1052800002EB8202233A1F2404FA02F220EA02020D
:105290002A631D68286B4A6802EB8202233A0C8855
:1052A00004FA02F202432A63C1E71D68E86A02EBCE
:1052B0008202413A1F2404FA02F220EA0202EA6260
:1052C0001D68E86A4A6802EB8202413A0C8804FAD7
:1052D00002F20243EA62AAE70A68122AABD1194A2B
:1052E000506820F400005060506840F48000506026
:1052F000A1E70A681448824201D0112A9FD1114ABD
:10530000506820F480005060506840F40000506005
:1053100009680D4A914292D10C4A12680C49A1FBCE
:105320000212920C02EB820252000192019A002AB0
:1053300085D0019A013A0192F8E7022082E700BF86
:105340000020014000230140120000100000002056
:1053500083DE1B4390F83C30012B22D010B4024670
:10536000012380F83C30104B586820F01F00586033
:1053700058680C6820435860586820F440405860D2
:1053800058684C6820435860586820F47060586032
:105390005868896801435960002082F83C0010BCBD
:1053A00070470220704700BF00230140002800F032
:1053B000A18038B5044690F82030D3B12268136834
:1053C00043F001031360FFF70DFD054623685A689B
:1053D00012F0010F10D1FFF705FD401B0A28F5D987
:1053E000636A43F400336362052384F820300120AC
:1053F00038BDFCF7EBFCE1E71A6822F002021A6004
:10540000FFF7F0FC054623685A6812F0020F0DD032
:10541000FFF7E8FC401B0A28F5D9636A43F4003320
:105420006362052384F820300120E1E7227E012A0F
:105430003DD01A6822F080021A60637E012B3BD0B7
:105440002268136823F040031360A37E012B39D038
:105450002268136823F020031360E37E012B37D00A
:105460002268136843F010031360237F012B35D0AB
:105470002268136823F008031360637F012B33D085
:105480002268136823F004031360A368E2681343DF
:1054900022691343626913436268013A2168134326
:1054A000CB6100206062012384F82030A0E71A68F5
:1054B00042F080021A60C0E72268136843F040039C
:1054C0001360C2E72268136843F020031360C4E747
:1054D0002268136823F010031360C6E7226813687C
:1054E00043F008031360C8E72268136843F004031D
:1054F0001360CAE70120704790F82030013BDBB20F
:10550000012B05D9436A43F480234362012070478D
:1055100010B5474BD3F8002242F00102C3F8002235
:10552000D3F8002222F47C52C3F80022D3F80022E0
:10553000486A42EA0022C3F800224A6902F01F02C8
:10554000012000FA02F2D3F81C026FEA020C20EAF2
:105550000200C3F81C02CB69CBB9354BD3F80C025F
:105560000CEA0000C3F80C028C884869D1F80CE002
:1055700044EA0E44483043F830408C68088840EADA
:1055800004404C6904F1480E03EBCE035860CB692C
:10559000012B1ED08B69002B35D12548D0F8043261
:1055A0000CEA0303C0F804320B699BBB2048D0F817
:1055B00014320CEA0303C0F814320B6A012B30D00A
:1055C0001B4AD2F8003223F00103C2F80032002057
:1055D00010BD174BD3F80C021043C3F80C028C8893
:1055E0004869D1F800E044EA0E44483043F83040BE
:1055F00088894C69D1F808E040EA0E40483403EB52
:10560000C4035860C6E70A48D0F804321343C0F810
:105610000432C9E70648D0F814321343C0F81432F4
:10562000CBE70349D1F81C321343C1F81C32C7E75A
:105630000064004070B5044690F82050EDB2012D92
:1056400006D0436A43F4002343620125284670BD17
:10565000022380F820300268136823F001031360EE
:10566000FFF7C0FB064623685B6813F0010F0CD000
:10567000FFF7B8FB831B0A2BF5D9636A43F40033A9
:105680006362052384F82030E0E700256562DDE7EA
:1056900030B590F820C00468A4680CF1FF3C5FFAB4
:1056A0008CFCBCF1010F6BD814F0E05F62D0C4F346
:1056B000016CBCF1020F05D9436A43F40003436255
:1056C000012062E0012404FA0CF41C608B68002BBA
:1056D0003DD10D68CB68046843EA45550CF11803C9
:1056E0001B01E55003680C690CF1180E03EB0E1357
:1056F0005C600B7D012B35D0D17993791B0443EA93
:105700000163517943EA012314790168234301EBD2
:105710000C11C1F88C31D17893781B0443EA0163F2
:10572000517843EA0123117802680B4302EB0C1213
:10573000C2F8883102680CF1180C4FEA0C1C52F8C0
:105740000C3043F0010342F80C3000201DE04C689F
:1057500043EAC403CC6823430CF118042401056810
:105760002B51BFE7036803EB0E13596841F48071B6
:105770005960C1E7436A43F400134362012004E027
:10578000436A43F480234362012030BD90F820C077
:105790000CF1FF3C5FFA8CFCBCF1010F00F29B8026
:1057A00010B451B90468E46814F0030F10D1436ACF
:1057B00043F40013436201207BE00468246914F081
:1057C000030F05D1436A43F400134362012070E0E4
:1057D00001F11B042401D0F800C05CF8044004F07F
:1057E00004049460002C66D101F11B042401D0F85C
:1057F00000C05CF80440640D1460046801F11B0CE7
:105800004FEA0C1C54F80C4004F00204D460046805
:105810006444646804F00F041461046864446468B8
:10582000C4F307249461046864446468240C5461DC
:10583000026802EB0112D2F8B8211A70026802EB7A
:105840000112D2F8B821C2F307225A70026802EBA3
:105850000112D2F8B821C2F307429A70026802EB33
:105860000112D2F8B821120EDA70026802EB0112AE
:10587000D2F8BC211A71026802EB0112D2F8BC21E5
:10588000C2F307225A71026802EB0112D2F8BC215E
:10589000C2F307429A71026802EB0112D2F8BC21EE
:1058A000120EDA7189B90268D36843F02003D3601D
:1058B000002010BC704701F11B042401D0F800C087
:1058C0005CF80440E408546097E70268136943F009
:1058D00020031361ECE7436A43F480234362012011
:1058E0007047704770477047704770477047704700
:1058F0007047704770477047704770472DE9F84F01
:10590000054603685C69D3F804809F68D3F80CA04F
:10591000D3F81090D3F818B014F001063BD017F06C
:10592000010616D001229A6017F0020F08D117F075
:10593000040F0CD117F0080606D04FF4805608E08B
:10594000FFF7CFFF002604E0FFF7CEFF01E04FF4A2
:10595000006617F4807F0DD02B684FF480729A6038
:1059600017F4007F40F0968017F4806F00F0968067
:1059700046F4005617F4803F0DD02B684FF4803268
:105980009A6017F4003F40F0938017F4802F00F0E6
:10599000938046F4004614F0080F07D01AF0100F59
:1059A00004D046F400762B681022DA6014F0040F5D
:1059B00003D01AF0080F40F0898014F0020F05D0D0
:1059C0002B68DB6813F0030F40F0878014F0400F62
:1059D00007D019F0100F04D046F480662B6810220F
:1059E0001A6114F0200F02D019F0080F79D114F0C9
:1059F000100F04D02B681B6913F0030F78D114F437
:105A0000003F02D018F0100F76D114F4803F02D07E
:105A100018F0080F77D114F4004F37D018F0040FA6
:105A200031D014F4807F04D01BF0010F01D046F078
:105A3000010614F4007F04D01BF0020F01D046F0E1
:105A4000020614F4806F04D01BF0040F01D046F05E
:105A5000040614F4006F16D01BF0700B13D0BBF1CA
:105A6000400F66D056D8BBF1200F5CD0BBF1300F91
:105A70005CD0BBF1100F01D146F008062A6893698B
:105A800023F0700393612B6804225A60002E56D1D4
:105A9000BDE8F88F2846FFF725FF6BE717F4006F86
:105AA00002D046F4804665E72846FFF71EFF61E70F
:105AB0002846FFF718FF6EE717F4002F02D046F4D0
:105AC000803668E72846FFF711FF64E72B68082255
:105AD000DA602846FFF70CFF6FE72846FFF707FF5D
:105AE00074E72B6808221A612846FFF703FF7EE758
:105AF0002846FFF7FEFE82E72B6810225A602846F0
:105B0000FFF7F9FE81E72B6808225A602846FFF765
