:020000040800F2
:1000000000000220415000086149000863490008CF
:1000100065490008674900086949000800000000B8
:100020000000000000000000000000006B49000814
:100030006D490008000000006F4900087149000880
:10004000915000089150000891500008915000080C
:1000500091500008915000089150000891500008FC
:1000600091500008915000089150000891500008EC
:1000700091500008915000089150000891500008DC
:1000800091500008915000089150000891500008CC
:1000900079490008915000089150000891500008DB
:1000A00091500008A14C00089150000891500008A0
:1000B000915000089150000891500008915000089C
:1000C000915000089150000891500008915000088C
:1000D0009150000891500008E94A0008915000082A
:1000E000915000089150000891500008915000086C
:1000F000915000089150000891500008915000085C
:10010000915000089150000891500008915000084B
:10011000915000089150000891500008915000083B
:10012000915000089150000891500008915000082B
:1001300091500008000000000000000091500008ED
:10014000915000089150000891500008915000080B
:1001500091500008915000089150000891500008FB
:1001600091500008915000089150000891500008EB
:1001700091500008915000089150000800000000C4
:100180000000000091500008000000000000000086
:10019000915000080000000000000000915000088D
:1001A0000000000000000000000000009150000866
:1001B000915000089150000891500008915000089B
:0401C0009150000852
:1002000010B5054C237833B9044B13B10448AFF350
:1002100000800123237010BDBC09002000000000F5
:10022000F002010808B5034B1BB103490348AFF3C3
:10023000008008BD00000000C0090020F002010895
:1002400081F0004102E000BF83F0004330B54FEA87
:1002500041044FEA430594EA050F08BF90EA020FF4
:100260001FBF54EA000C55EA020C7FEA645C7FEA87
:10027000655C00F0E2804FEA5454D4EB5555B8BFAA
:100280006D420CDD2C4480EA020281EA030382EA1B
:10029000000083EA010180EA020281EA0303362DAD
:1002A00088BF30BD11F0004F4FEA01314FF4801C80
:1002B0004CEA113102D0404261EB410113F0004F92
:1002C0004FEA03334CEA133302D0524263EB430349
:1002D00094EA050F00F0A780A4F10104D5F1200EE7
:1002E0000DDB02FA0EFC22FA05F2801841F1000142
:1002F00003FA0EF2801843FA05F359410EE0A5F116
:1003000020050EF1200E012A03FA0EFC28BF4CF046
:10031000020C43FA05F3C01851EBE37101F00045FC
:1003200007D54FF0000EDCF1000C7EEB00006EEB09
:100330000101B1F5801F1BD3B1F5001F0CD3490893
:100340005FEA30004FEA3C0C04F101044FEA4452EA
:1003500012F5800F80F09A80BCF1004F08BF5FEA71
:10036000500C50F1000041EB045141EA050130BD51
:100370005FEA4C0C404141EB0101013C28BFB1F563
:10038000801FE9D291F0000F04BF01460020B1FAAE
:1003900081F308BF2033A3F10B03B3F120020CDA81
:1003A0000C3208DD02F1140CC2F10C0201FA0CF05F
:1003B00021FA02F10CE002F11402D8BFC2F1200CC4
:1003C00001FA02F120FA0CFCDCBF41EA0C0190407A
:1003D000E41AA2BF01EB0451294330BD6FEA0404C3
:1003E0001F3C1CDA0C340EDC04F11404C4F12002AE
:1003F00020FA04F001FA02F340EA030021FA04F3C0
:1004000045EA030130BDC4F10C04C4F1200220FA16
:1004100002F001FA04F340EA0300294630BD21FA54
:1004200004F0294630BD94F0000F83F4801306BF1A
:1004300081F480110134013D4EE77FEA645C18BF0E
:100440007FEA655C29D094EA050F08BF90EA020FA5
:1004500005D054EA000C04BF1946104630BD91EA9D
:10046000030F1EBF0021002030BD5FEA545C05D1A0
:100470004000494128BF41F0004130BD14F58004DF
:100480003CBF01F5801130BD01F0004545F0FE4153
:1004900041F470014FF0000030BD7FEA645C1ABF88
:1004A000194610467FEA655C1CBF0B46024650EABF
:1004B000013406BF52EA033591EA030F41F40021EB
:1004C00030BD00BF90F0000F04BF0021704730B571
:1004D0004FF4806404F132044FF000054FF0000146
:1004E00050E700BF90F0000F04BF0021704730B507
:1004F0004FF4806404F1320410F0004548BF4042DC
:100500004FF000013EE700BF42004FEAE2014FEA30
:1005100031014FEA02701FBF12F07F4393F07F4F0B
:1005200081F06051704732F07F4208BF704793F00E
:100530007F4F04BF41F40021704730B54FF4607421
:1005400001F0004521F000411CE700BF50EA010224
:1005500008BF704730B54FF000050AE050EA0102CD
:1005600008BF704730B511F0004502D5404261EB3D
:1005700041014FF4806404F132045FEA915C3FF47E
:10058000D8AE4FF003025FEADC0C18BF03325FEA1B
:10059000DC0C18BF033202EBDC02C2F1200300FACC
:1005A00003FC20FA02F001FA03FE40EA0E0021FAF1
:1005B00002F11444BDE600BF4A0011D212F5001248
:1005C00011D20DD56FF47873B3EB62520ED44FEAAB
:1005D000C12343F0004343EA505323FA02F070472B
:1005E0004FF00000704750EA013002D14FF0FF3069
:1005F00070474FF0000070474FEA4102B2F1E0430C
:1006000024BFB3F5001CDCF1FE5C0DD901F0004CF9
:100610004FEAC0024CEA5070B2F1004F40EB830049
:1006200008BF20F00100704711F0804F21D113F175
:100630003872BCBF01F00040704741F480114FEAAE
:100640005252C2F11802C2F1200C10FA0CF320FA37
:1006500002F018BF40F001004FEAC1234FEAD32354
:1006600003FA0CFC40EA0C0023FA02F34FEA4303BE
:10067000CCE77FEA625307D150EA01331EBF4FF047
:10068000FE4040F44000704701F0004040F0FE4062
:1006900040F40000704700BF80F0004002E000BF5F
:1006A00081F0004142001FBF5FEA410392EA030F5D
:1006B0007FEA226C7FEA236C6AD04FEA1262D2EBA7
:1006C0001363C1BFD218414048404140B8BF5B42AC
:1006D000192B88BF704710F0004F40F4000020F045
:1006E0007F4018BF404211F0004F41F4000121F05B
:1006F0007F4118BF494292EA030F3FD0A2F10102A5
:1007000041FA03FC10EB0C00C3F1200301FA03F1E2
:1007100000F0004302D5494260EB4000B0F5000F05
:1007200013D3B0F1807F06D340084FEA310102F1C4
:100730000102FE2A51D2B1F1004F40EBC25008BF76
:1007400020F0010040EA03007047490040EB000040
:10075000013A28BFB0F5000FEDD2B0FA80FCACF141
:10076000080CB2EB0C0200FA0CF0AABF00EBC2506E
:1007700052421843BCBFD0401843704792F0000F5C
:1007800081F4000106BF80F400000132013BB5E7AF
:100790004FEA41037FEA226C18BF7FEA236C21D025
:1007A00092EA030F04D092F0000F08BF084670478A
:1007B00090EA010F1CBF0020704712F07F4F04D158
:1007C000400028BF40F00040704712F100723CBF6B
:1007D00000F50000704700F0004343F0FE4040F495
:1007E000000070477FEA226216BF08467FEA236353
:1007F0000146420206BF5FEA412390EA010F40F43E
:10080000800070474FF0000304E000BF10F0004389
:1008100048BF40425FEA000C08BF704743F0964370
:1008200001464FF000001CE050EA010208BF70478B
:100830004FF000030AE000BF50EA010208BF704712
:1008400011F0004302D5404261EB41015FEA010C27
:1008500002BF84460146002043F0B64308BFA3F11F
:100860008053A3F50003BCFA8CF2083AA3EBC25301
:1008700010DB01FA02FC634400FA02FCC2F1200220
:10088000BCF1004F20FA02F243EB020008BF20F057
:100890000100704702F1200201FA02FCC2F12002BD
:1008A00050EA4C0021FA02F243EB020008BF20EAB2
:1008B000DC7070474FF0FF0C1CEAD0521EBF1CEAE0
:1008C000D15392EA0C0F93EA0C0F6FD01A4480EACE
:1008D000010C400218BF5FEA41211ED04FF00063B7
:1008E00043EA501043EA5111A0FB01310CF00040E3
:1008F000B1F5000F3EBF490041EAD3715B0040EA09
:10090000010062F17F02FD2A1DD8B3F1004F40EBD8
:10091000C25008BF20F00100704790F0000F0CF0AB
:10092000004C08BF49024CEA502040EA51207F3A6F
:10093000C2BFD2F1FF0340EAC250704740F400004A
:100940004FF00003013A5DDC12F1190FDCBF00F03B
:1009500000407047C2F10002410021FA02F1C2F1E9
:10096000200200FA02FC5FEA310040F1000053EA85
:100970004C0308BF20EADC70704792F0000F00F0D3
:10098000004C02BF400010F4000F013AF9D040EAD9
:100990000C0093F0000F01F0004C02BF490011F46D
:1009A000000F013BF9D041EA0C018FE70CEAD1536B
:1009B00092EA0C0F18BF93EA0C0F0AD030F0004CEB
:1009C00018BF31F0004CD8D180EA010000F000409F
:1009D000704790F0000F17BF90F0004F084691F05D
:1009E000000F91F0004F14D092EA0C0F01D1420297
:1009F0000FD193EA0C0F03D14B0218BF084608D160
:100A000080EA010000F0004040F0FE4040F40000A9
:100A1000704740F0FE4040F4400070474FF0FF0C3C
:100A20001CEAD0521EBF1CEAD15392EA0C0F93EA83
:100A30000C0F69D0A2EB030280EA010C49024FEAD5
:100A4000402037D04FF0805343EA111143EA10138E
:100A50000CF000408B4238BF5B0042F17D024FF446
:100A6000000C8B4224BF5B1A40EA0C00B3EB510F21
:100A700024BFA3EB510340EA5C00B3EB910F24BF0A
:100A8000A3EB910340EA9C00B3EBD10F24BFA3EB8F
:100A9000D10340EADC001B0118BF5FEA1C1CE0D157
:100AA000FD2A3FF650AF8B4240EBC25008BF20F00A
:100AB000010070470CF0004C4CEA50207F32C2BF5E
:100AC000D2F1FF0340EAC250704740F400004FF0FB
:100AD0000003013A37E792F0000F00F0004C02BF2C
:100AE000400010F4000F013AF9D040EA0C0093F0F6
:100AF000000F01F0004C02BF490011F4000F013B50
:100B0000F9D041EA0C0195E70CEAD15392EA0C0FB7
:100B100008D142027FF47DAF93EA0C0F7FF470AFEF
:100B2000084676E793EA0C0F04D14B023FF44CAF32
:100B300008466EE730F0004C18BF31F0004CCAD1C7
:100B400030F000427FF45CAF31F000437FF43CAF03
:100B50005FE700BF4FF0FF3C06E000BF4FF0010C25
:100B600002E000BF4FF0010C4DF804CD4FEA400207
:100B70004FEA41037FEA226C18BF7FEA236C11D051
:100B800001B052EA530C18BF90EA010F58BFB2EB04
:100B9000030088BFC81738BF6FEAE17018BF40F084
:100BA000010070477FEA226C02D15FEA402C05D138
:100BB0007FEA236CE4D15FEA412CE1D05DF8040BBD
:100BC000704700BF844608466146FFE70FB5FFF750
:100BD000C9FF002848BF10F1000F0FBD4DF808ED08
:100BE000FFF7F4FF0CBF012000205DF808FB00BFF9
:100BF0004DF808EDFFF7EAFF34BF012000205DF853
:100C000008FB00BF4DF808EDFFF7E0FF94BF01209F
:100C100000205DF808FB00BF4DF808EDFFF7D2FF9C
:100C200094BF012000205DF808FB00BF4DF808EDDF
:100C3000FFF7C8FF34BF012000205DF808FB00BFAC
:100C40004FEA40024FEA41037FEA226C02D15FEA99
:100C5000402C08D17FEA236C02D15FEA412C02D1FB
:100C60004FF0000070474FF0010070474FEA40021C
:100C7000B2F1FE4F0FD34FF09E03B3EB12620DD9CA
:100C80004FEA002343F0004310F0004F23FA02F034
:100C900018BF404270474FF00000704712F1610FDB
:100CA00001D1420205D110F0004008BF6FF00040B2
:100CB00070474FF00000704742000ED2B2F1FE4F75
:100CC0000BD34FF09E03B3EB126209D44FEA00231B
:100CD00043F0004323FA02F070474FF000007047E2
:100CE00012F1610F01D1420202D14FF0FF30704783
:100CF0004FF00000704700BF53B94AB9002908BF40
:100D000000281CBF4FF0FF314FF0FF3000F074B9E6
:100D1000ADF1080C6DE904CE00F006F8DDF804E052
:100D2000DDE9022304B070472DE9F047089E0D4627
:100D300004468846002B4DD18A42944668D9B2FABF
:100D400082F252B101FA02F3C2F1200120FA01F15C
:100D50000CFA02FC41EA030894404FEA1C45210CBE
:100D6000B8FBF5FE1FFA8CF705FB1E8341EA03432F
:100D70000EFB07F199420BD91CEB03030EF1FF3078
:100D800080F01E81994240F21B81AEF1020E634455
:100D90005B1AA4B2B3FBF5F005FB103344EA03443D
:100DA00000FB07F7A7420AD91CEB040400F1FF334C
:100DB00080F00881A74240F2058164440238E41BB8
:100DC00040EA0E4000211EB1D4400023C6E9004392
:100DD000BDE8F0878B4208D9002E00F0EE8000219C
:100DE000C6E900050846BDE8F087B3FA83F100299B
:100DF0004AD1AB4202D3824200F2F980841A65EBF9
:100E0000030301209846002EE2D0C6E90048DFE740
:100E100002B9FFDEB2FA82F2002A40F09180A1EB23
:100E20000C054FEA1C471FFA8CFE0121B5FBF7F3B6
:100E300007FB1350250C45EA00450EFB03F0A842C2
:100E400008D91CEB050503F1FF3802D2A84200F2D5
:100E5000CB8043462D1AA4B2B5FBF7F007FB105523
:100E600044EA05440EFB00FEA64508D91CEB040429
:100E700000F1FF3502D2A64500F2BB802846A4EB64
:100E80000E0440EA03409EE7C1F120078B4022FA9E
:100E900007FC4CEA030C20FA07F405FA01F31C43A3
:100EA000FD404FEA1C4900FA01F3B5FBF9F8200CAC
:100EB0001FFA8CFE09FB185540EA054508FB0EF0A9
:100EC000A84202FA01F20BD91CEB050508F1FF3A22
:100ED00080F08880A84240F28580A8F1020865442D
:100EE0002D1AA4B2B5FBF9F009FB105544EA0545EB
:100EF00000FB0EFEAE4508D91CEB050500F1FF34E2
:100F00006CD2AE456AD90238654440EA0840A0FB7D
:100F10000294A5EB0E05A542C846A64656D353D06B
:100F20005EB1B3EB080265EB0E0505FA07F722FA8E
:100F300001F3CD401F43C6E900750021BDE8F087ED
:100F4000C2F1200320FA03F10CFA02FC25FA03F3A4
:100F500095400D434FEA1C471FFA8CFEB3FBF7F197
:100F600007FB11302B0C43EA004301FB0EF09842C3
:100F700004FA02F408D91CEB030301F1FF382FD265
:100F800098422DD9023963441B1AADB2B3FBF7F076
:100F900007FB103345EA034500FB0EF3AB4208D9CB
:100FA0001CEB050500F1FF3816D2AB4214D902380C
:100FB0006544ED1A40EA014138E73146304607E71B
:100FC0008646E5E61846FAE64B45A9D2B9EB020893
:100FD00064EB0C0E0138A3E74046EAE7204694E7AD
:100FE0004146D1E7D0467BE7023B654432E70846FD
:100FF00009E76444023842E7704700BF844641EA8B
:10100000000313F003036DD1403A41D351F8043B80
:1010100040F8043B51F8043B40F8043B51F8043BD2
:1010200040F8043B51F8043B40F8043B51F8043BC2
:1010300040F8043B51F8043B40F8043B51F8043BB2
:1010400040F8043B51F8043B40F8043B51F8043BA2
:1010500040F8043B51F8043B40F8043B51F8043B92
:1010600040F8043B51F8043B40F8043B51F8043B82
:1010700040F8043B51F8043B40F8043B51F8043B72
:1010800040F8043B51F8043B40F8043B403ABDD2E1
:10109000303211D351F8043B40F8043B51F8043B83
:1010A00040F8043B51F8043B40F8043B51F8043B42
:1010B00040F8043B103AEDD20C3205D351F8043B12
:1010C00040F8043B043AF9D2043208D0D2071CBFDE
:1010D00011F8013B00F8013B01D30B880380604607
:1010E000704700BF082A13D38B078DD010F003037D
:1010F0008AD0C3F10403D21ADB071CBF11F8013BED
:1011000000F8013B80D331F8023B20F8023B7BE73B
:10111000043AD9D3013A11F8013B00F8013BF9D266
:101120000B7803704B7843708B7883706046704700
:1011300000000000000000000000000000000000AF
:1011400090F800F06DE9024520F007016FF0000C07
:1011500010F0070491F820F040F049804FF00004AF
:101160006FF00700D1E9002391F840F000F108008A
:1011700082FA4CF2A4FA8CF283FA4CF3A2FA8CF3C2
:101180004BBBD1E9022382FA4CF200F10800A4FA29
:101190008CF283FA4CF3A2FA8CF3E3B9D1E904237D
:1011A00082FA4CF200F10800A4FA8CF283FA4CF3B4
:1011B000A2FA8CF37BB9D1E9062301F1200182FA6E
:1011C0004CF200F10800A4FA8CF283FA4CF3A2FA74
:1011D0008CF3002BC6D0002A04BF04301A4612BA82
:1011E000B2FA82F2FDE8024500EBD2007047D1E985
:1011F000002304F00305C4F100004FEAC50514F014
:10120000040F91F840F00CFA05F562EA05021CBFE4
:1012100063EA050362464FF00004A9E700000000FE
:1012200001F0FF01102A2BDB10F0070F08D010F897
:10123000013B013A8B422DD010F0070F42B3F6D19B
:10124000F0B441EA012141EA014122F007047FF0B4
:1012500000070023F0E80256083C85EA010586EA0B
:10126000010685FA47F5A3FA87F586FA47F6A5FA47
:1012700087F68EB9EED1F0BC01F0FF0102F0070253
:1012800032B110F8013B013A83EA010313B1F8D1FE
:101290000020704701387047002D06BF35460338DF
:1012A000073815F0010F07D1013015F4807F02BF18
:1012B000013015F4C03F0130F0BC0138704700BF69
:1012C00070B54FF0FF0C4CF4E06C1CEA11541DBFDC
:1012D0001CEA135594EA0C0F95EA0C0F00F0DEF8A7
:1012E0002C4481EA030621EA4C5123EA4C5350EA8C
:1012F000013518BF52EA033541F4801143F48013DD
:1013000038D0A0FB02CE4FF00005E1FB02E506F06D
:101310000042E0FB03E54FF00006E1FB03569CF0C2
:10132000000F18BF4EF0010EA4F1FF04B6F5007FC8
:1013300064F5407404D25FEA4E0E6D4146EB06063A
:1013400042EAC62141EA55514FEAC52040EA5E50C3
:101350004FEACE2EB4F1FD0C88BFBCF5E06F1ED86D
:10136000BEF1004F08BF5FEA500E50F1000041EBA4
:10137000045170BD06F0004646EA010140EA020051
:1013800081EA0301B4EB5C04C2BFD4EB0C0541EA73
:10139000045170BD41F480114FF0000E013C00F388
:1013A000AB8014F1360FDEBF002001F0004170BDAC
:1013B000C4F10004203C35DA0C341BDC04F11404C5
:1013C000C4F1200500FA05F320FA04F001FA05F251
:1013D00040EA020001F0004221F0004110EBD3701E
:1013E00021FA04F642EB06015EEA430E08BF20EA4A
:1013F000D37070BDC4F10C04C4F1200500FA04F3ED
:1014000020FA05F001FA04F240EA020001F000417E
:1014100010EBD37041F100015EEA430E08BF20EAF1
:10142000D37070BDC4F1200500FA05F24EEA020E39
:1014300020FA04F301FA05F243EA020321FA04F068
:1014400001F0004121FA04F220EA020000EBD3701F
:101450005EEA430E08BF20EAD37070BD94F0000F1F
:101460000FD101F00046400041EB010111F4801F53
:1014700008BF013CF7D041EA060195F0000F18BF04
:10148000704703F00046520043EB030313F4801F40
:1014900008BF013DF7D043EA0603704794EA0C0FFA
:1014A0000CEA135518BF95EA0C0F0CD050EA410610
:1014B00018BF52EA4306D1D181EA030101F000418D
:1014C0004FF0000070BD50EA410606BF10461946B5
:1014D00052EA430619D094EA0C0F02D150EA0136C1
:1014E00013D195EA0C0F05D152EA03361CBF104602
:1014F00019460AD181EA030101F0004141F0FE41A1
:1015000041F470014FF0000070BD41F0FE4141F424
:10151000780170BD70B54FF0FF0C4CF4E06C1CEA24
:1015200011541DBF1CEA135594EA0C0F95EA0C0FD9
:1015300000F0A7F8A4EB050481EA030E52EA033594
:101540004FEA013100F088804FEA03334FF08055B5
:1015500045EA131343EA12634FEA022245EA1115E2
:1015600045EA10654FEA00260EF000419D4208BF93
:10157000964244F1FD0404F5407402D25B084FEA40
:101580003202B61A65EB03055B084FEA32024FF4EC
:1015900080104FF4002CB6EB020E75EB030E22BF49
:1015A000B61A754640EA0C005B084FEA3202B6EB09
:1015B000020E75EB030E22BFB61A754640EA5C00B8
:1015C0005B084FEA3202B6EB020E75EB030E22BF48
:1015D000B61A754640EA9C005B084FEA3202B6EB49
:1015E000020E75EB030E22BFB61A754640EADC0008
:1015F00055EA060E18D04FEA051545EA16754FEA6A
:1016000006164FEAC30343EA52734FEAC2025FEA87
:101610001C1CC0D111F4801F0BD141EA00014FF016
:1016200000004FF0004CB6E711F4801F04BF0143E7
:101630000020B4F1FD0C88BFBCF5E06F3FF6AFAE03
:10164000B5EB030C04BFB6EB020C5FEA500C50F193
:10165000000041EB045170BD0EF0004E4EEA113116
:1016600014EB5C04C2BFD4EB0C0541EA045170BD1D
:1016700041F480114FF0000E013C90E645EA060E61
:101680008DE60CEA135594EA0C0F08BF95EA0C0F8F
:101690003FF43BAF94EA0C0F0AD150EA01347FF4D7
:1016A00034AF95EA0C0F7FF425AF104619462CE7AE
:1016B00095EA0C0F06D152EA03353FF4FDAE104611
:1016C000194622E750EA410618BF52EA43067FF462
:1016D000C5AE50EA41047FF40DAF52EA43057FF4F2
:1016E000EBAE12E74FF0FF3C06E000BF4FF0010CFD
:1016F00002E000BF4FF0010C4DF804CD4FEA410C61
:101700007FEA6C5C4FEA430C18BF7FEA6C5C1BD02D
:1017100001B050EA410C0CBF52EA430C91EA030FAE
:1017200002BF90EA020F0020704710F1000F91EA0B
:10173000030F58BF994208BF90422CBFD8176FEAD9
:10174000E37040F0010070474FEA410C7FEA6C5CA7
:1017500002D150EA013C07D14FEA430C7FEA6C5CAE
:10176000D6D152EA033CD3D05DF8040B704700BFDA
:101770008446104662468C461946634600E000BF28
:1017800001B5FFF7B7FF002848BF10F1000F01BDFA
:101790004DF808EDFFF7F4FF0CBF012000205DF8C5
:1017A00008FB00BF4DF808EDFFF7EAFF34BF01204A
:1017B00000205DF808FB00BF4DF808EDFFF7E0FFE3
:1017C00094BF012000205DF808FB00BF4DF808ED34
:1017D000FFF7CEFF94BF012000205DF808FB00BF9B
:1017E0004DF808EDFFF7C4FF34BF012000205DF87D
:1017F00008FB00BF4FEA410C7FEA6C5C02D150EA63
:10180000013C0AD14FEA430C7FEA6C5C02D152EAF8
:10181000033C02D14FF0000070474FF001007047C9
:101820004FEA410212F5001215D211D56FF4787308
:10183000B3EB625212D94FEAC12343F0004343EAAB
:10184000505311F0004F23FA02F018BF4042704786
:101850004FF00000704750EA013005D111F0004010
:1018600008BF6FF0004070474FF00000704700BFA6
:1018700038B505460C462846214600220023FFF7CE
:1018800091FF28B928462146BDE8384000F00AB843
:10189000284604F1004100F005F8404261EB4101A7
:1018A00038BD00BFD0B50C4B002206460F46FFF7EF
:1018B00007FDFEF781FE0446FEF704FE074B0022FB
:1018C000FFF7FEFC02460B4630463946FEF7BCFCED
:1018D000FEF772FE2146D0BD0000F03D0000F04151
:1018E00000B589B0002305930693079301930293F3
:1018F000039304931B481C4A02604FF480324260F9
:1019000083600361037680F82030C362174A8262E5
:10191000C3600122C26180F83030426103F0BAFC3A
:10192000B8B91623059300230693079305A90D481C
:1019300003F0B4FE80B90A2301930123029300232C
:10194000039301A9074803F0D3FD40B909B05DF83E
:1019500004FB02F0E5FBE4E702F0E2FBEBE702F058
:10196000DFFBF3E7D8090020002001400100000F51
:1019700000B585B0002300930193029303931448AC
:10198000144A02604FF48032426083600361037640
:1019900080F82030C3600122C26180F8303042619B
:1019A00003F078FC68B90B23009301230193002313
:1019B00002936946064803F09BFD28B905B05DF81F
:1019C00004FB02F0ADFBEEE702F0AAFBF6E700BF76
:1019D000200A00200021014000B585B000230093BB
:1019E0000193029303931348134A02604FF4803229
:1019F000426083600361037680F82030C360012277
:101A0000C26180F83030426103F044FC60B90023C9
:101A100000930122019202936946064803F068FD93
:101A200028B905B05DF804FB02F07AFBEFE702F09D
:101A300077FBF6E7680A00200022014000B58DB070
:101A400000230793089309930A930B930368344A7E
:101A5000934208D0334A934224D0334A934240D031
:101A60000DB05DF804FB00210191304B5A6C42F43B
:101A700080725A645A6C02F480720192019A029147
:101A80001A6B42F004021A631B6B03F00403029307
:101A9000029B012307930323089307A9244804F01A
:101AA000C1FADDE700210391204B5A6C42F4007229
:101AB0005A645A6C02F400720392039A04911A6BEE
:101AC00042F004021A631B6B03F004030493049BAB
:101AD000022307930323089307A9154804F0A2FAE9
:101AE000BEE700210591114B5A6C42F480625A64A2
:101AF0005A6C02F480620592059A06911A6B42F0C4
:101B000001021A631B6B03F001030693069B01237A
:101B100007930323089307A9064804F083FA9FE775
:101B20000020014000210140002201400038024015
:101B30000008024000000240F0B583B007460E46A0
:101B400014461D464B4B00221A60237C002B58D0B4
:101B5000E068281AFEF75AFE4749FEF7ABFE054635
:101B600060614FF07E51FFF743F8002850D14349A0
:101B70002846FFF73DF8002861D1304601F088F88B
:101B8000FD68A66931462846FEF78AFD20F000412F
:101B90003B48FEF743FFFEF7B7FC0DF0BBFFFEF737
:101BA0000BFD207029463046FFF722F800285AD056
:101BB000002384F82030334806F09EFA217832481A
:101BC00006F038FAA069FEF79FFC06460F46284645
:101BD000FEF79AFCCDE9000132463B462B4806F061
:101BE00029FA94F82020234B1A602078FEF70AFE89
:101BF000274B986200232374012384F8213003B01B
:101C0000F0BD244806F078FA01232374E5609FE7CD
:101C10000023A36004F50042C2F88832C2F8903273
:101C20001B4A926CC6F8AC20C6F8B03004F50241ED
:101C30002C31304601F0D0F8FB68A361DFE74FF0AC
:101C40007E512846FEF72CFD1349FEF733FEA060B7
:101C500004F50043C3F8880204F502412C313046F4
:101C600001F0BAF8CBE7012384F820300B4806F0E6
:101C700043FAA3E7DC0B002017B7D137BE6CD03F87
:101C8000DB0FC9402C0301085C0301087003010845
:101C9000DC0A002008030108000020414403010879
:101CA0002DE9F04F83B081460C4617461D46137C44
:101CB000002B39D0F868281AFEF7A8FD9F49FEF7D7
:101CC000F9FD054678614FF07E51FEF791FF00283F
:101CD00036D19B4B9E6A9B493046FEF7EBFD9A49F5
:101CE000FEF79CFE4FF07E51FEF7DCFC01462846D5
:101CF000FEF77EFF00283BD194493046FEF7DAFD1F
:101D00009149FEF78BFE4FF07E51FEF7CBFC01466A
:101D10002846FEF76DFF002840F08A80204600F03C
:101D2000B7FF00242546E5E0894806F0E5F90123E0
:101D30003B74FD604FF07E53BB620023BB84B9E768
:101D40000023BB6007F50042C2F888327C4A926CDF
:101D5000C4F8AC20C4F8B03007F502412C3120465D
:101D600001F03AF8D9F80C30BB617B69BB626BE1DA
:101D70007849B868FEF796FCB86007F50042C2F8EB
:101D8000880207F502412C31204601F025F8B96A96
:101D90007869FEF74BFF002800F05681D7F80880DD
:101DA0004FF08E414046FEF785FD0446644E65497E
:101DB000B06AFEF77FFD01462046FEF72FFEFEF7D4
:101DC00055FF0546D9F874301B1A1C1404F400445E
:101DD000B7F824901C4409F10A0307EB83035C6005
:101DE0004046FEF791FBCDE9000123462A464946CD
:101DF000594806F01FF95949B86AFEF753FCB86212
:101E0000BC8C2046FEF702FD05464FF08641B06AC5
:101E1000FEF750FD4FF07E51FEF742FC014628468A
:101E2000FEF7DCFE002840F00F810134BC840BE19A
:101E30004849B868FEF734FCB860414B9B6CC4F865
:101E4000AC300023C4F8B030BA6807F50043C3F8DB
:101E5000882207F502412C31204600F0BDFFB96A07
:101E60007869FEF7E3FE002800F0EE80BE8C002EBD
:101E700000F0EA80D7F808804FF08E414046FEF728
:101E800019FD04462F492E4B986AFEF713FD0146B3
:101E90002046FEF7C3FDFEF7E9FE0546D9F874407B
:101EA000241A231403F40043234406F10A0207EB27
:101EB000820254681C4404EBD4746410546040469D
:101EC000FEF722FBCDE9000123462A46314622488F
:101ED00006F0B0F8BB8C013BBB842049B86AFEF722
:101EE000E1FBB862B0E004F10A0307EB83035B682F
:101EF0001D440134124B9E6A3046FEF7B7FEB4EB28
:101F0000C01FF0DB4FF086413046FEF7D3FC04469D
:101F10002846FEF77BFC2146FEF780FDFEF7A6FE75
:101F2000F861FB6AD3F5004904D44FEA29294FF040
:101F300000087AE009F1FF09F7E700BF17B7D137CA
:101F4000DC0A0020DB0FC94000002041DB0F4941C3
:101F50008C0301086E128339B40301087CD9A03BBD
:101F60004FF086415046FEF7A5FC82462046FEF71C
:101F70004DFC5146FEF796FBFEF778FE04460A3408
:101F800007EB840463681E4401353F2D37DC304B7A
:101F9000D3F828A04046FEF739FC5146FEF78AFCEC
:101FA0004FF08641FEF786FC4FF07051FEF782FC41
:101FB00004462846FEF72AFC2146FEF773FBFEF78F
:101FC00055FE041ECCDB2046FEF720FC83464FF076
:101FD00086415046FEF76EFC82464FF07E51FEF77A
:101FE0005FFB01465846FEF721FE0028C7D0514648
:101FF0005846FEF755FBFEF739FE0446BFE7334669
:10200000002E19DBDB1108EB09017F2900DD803987
:10201000FA699A1A01F500530A3307EB83035A60F1
:102020000C4806F007F808F10108B8F17F0F06DC4C
:102030006FF03F050026A8E706F17F03E2E70023E3
:102040003B74012387F8223003B0BDE8F08F00BF56
:10205000DC0A0020C403010808B50D480D4B0360DD
:102060000323436000238360C3604FF43022026186
:102070004FF480124261037643768376C37603770A
:10208000437703F037FB00B908BD02F049F8FBE7DE
:10209000B00A00200064004010B588B0002303930C
:1020A00004930593069307930268194B9A4201D053
:1020B00008B010BD0024019403F5EA331A6C42F015
:1020C00000721A641A6C02F000720192019A029472
:1020D0001A6B42F002021A631B6B03F002030293B5
:1020E000029B4FF44073039302230493032306934C
:1020F0000923079303A9074803F094FF22462146CA
:10210000142003F0D7FE142003F00CFFD0E700BF2B
:10211000006400400004024008B500238363094ABC
:10212000526852018262C36240F6FF7202634363E7
:10213000036401234364836400F12801024803F02F
:102140007FFB08BDDC0B0020B00A00200723836161
:10215000002303614361024B9B688360704700BFAB
:10216000DC0B00202DE9F84F0446894610461E4638
:10217000224D10232A6DE96C02F03CF807460C232F
:10218000AA6D696D304602F035F806460021E86810
:10219000FEF788FA804600F10040D5F838B059467D
:1021A000FEF788FB82466D6C59464046FEF782FB7F
:1021B00001462846FEF77EFB804629465046FEF73C
:1021C00079FB01460C2342460A9802F013F80546B3
:1021D00008230B4A00210B9802F00CF884F80190B8
:1021E0003B12A370E770331123712B1203EB061619
:1021F0006671A571E071BDE8F88F00BFDC0A0020B0
:102200000000204284B02DE9F04708AC84E80F00BC
:102210001C9F9DF821C09DF822009DF823309DF859
:1022200024604FEA161949EA0319360206F470666B
:102230009DF825301E439DF826209DF827304FEA53
:10224000131848EA02181D0205F470659DF828303D
:102250001D43224C1023226DE16C40EA0C2001F05A
:10226000E5FF38600C23A26D616D484601F0DEFF8A
:1022700078604FF000090C23E26D4946304601F0CA
:10228000D5FFB8600C23226E4946404601F0CEFFD0
:10229000F860D4F80C9009F10040D4F838A0514609
:1022A000FEF708FB0646D4F8448051464846FEF740
:1022B00001FB01464046FEF7FDFA04464146304622
:1022C000FEF7F8FA01460C232246284601F0AEFF3D
:1022D0003861BDE8F04704B0704700BFDC0A002059
:1022E00030B583B00446054625F8021B00221021B4
:1022F0000C4803F083FF6423009301232A46214600
:10230000094804F074FC084B93F85130DBB2022BFF
:10231000F9D001221021034803F070FF608803B058
:1023200030BD00BF000002406C9B002000B583B0B0
:102330006B4683E803004FF400411846FFF7D0FFD7
:1023400003B05DF804FB00B583B06B4683E803007F
:1023500048F201011846FFF7C3FF03B05DF804FB24
:1023600000B583B06B4683E803006FEA02716FEA41
:10237000514189B21846FFF7B3FF03B05DF804FB83
:1023800000B583B0EC468CE8030043EAC22189B271
:102390006046FFF7A5FF03B05DF804FB00B583B00E
:1023A000EC468CE80300520242F4805212B242EA38
:1023B000032109B2049A41EAC21109B2059B41EA1C
:1023C000431109B2069B41EA031109B2079B41EA96
:1023D000C30109B2089B41EA830109B2099B41EAA2
:1023E000430109B20A9B194389B26046FFF778FF9F
:1023F00003B05DF804FB00B583B0EC468CE8030045
:10240000920242F4205212B242EA032109B2049A23
:1024100041EA821109B2059B41EA031109B2069B08
:10242000194389B26046FFF75BFF03B05DF804FB18
:1024300000B583B0EC468CE80300920242F44052AF
:1024400012B242EA432109B2049A41EA022109B2D6
:10245000059B41EA831109B2069B41EA431109B287
:10246000079B41EA031109B2089B41EAC30109B283
:10247000099B41EA830109B20A9B194389B260466C
:10248000FFF72EFF03B05DF804FB10B582B06C4679
:1024900084E80300022294E80300FFF761FF20F0C4
:1024A00004039BB2022294E80300FFF769FF02B025
:1024B00010BD10B582B06C4684E80300022294E897
:1024C0000300FFF74DFF40F004039BB2022294E8A3
:1024D0000300FFF755FF02B010BD000030B583B018
:1024E0006C4684E8030094E80300FFF71FFF0546ED
:1024F00094E80300FFF727FF044615F4806F40D1EE
:1025000015F4007F41D115F4807F42D115F0800F82
:1025100043D115F0400F44D115F0200F45D115F0EF
:10252000100F46D115F0080F47D115F0040F48D110
:1025300015F0020F49D115F0010F4AD114F4806F44
:102540004BD114F4007F4CD114F4807F4DD114F0A2
:10255000800F4ED114F0400F4FD114F0200F50D106
:1025600014F0100F51D114F0080F52D114F0040FD1
:1025700053D114F0020F54D114F0010F55D103B010
:1025800030BD2C4805F056FDBAE72B4805F052FD4A
:10259000B9E72A4805F04EFDB8E7294805F04AFD9D
:1025A000B7E7284805F046FDB6E7274805F042FDA5
:1025B000B5E7264805F03EFDB4E7254805F03AFDAD
:1025C000B3E7244805F036FDB2E7234805F032FDB5
:1025D000B1E7224805F02EFDB0E7214805F02AFDBD
:1025E000AFE7204805F026FDAEE71F4805F022FDC5
:1025F000ADE71E4805F01EFDACE71D4805F01AFDCD
:10260000ABE71C4805F016FDAAE71B4805F012FDD4
:10261000A9E71A4805F00EFDA8E7194805F00AFDDC
:10262000A7E7184805F006FDA6E7174805F002FDE4
:10263000A5E700BFD0030108DC030108E803010897
:10264000F0030108F8030108000401080C04010864
:102650001804010824040108300401083C0401089E
:1026600048040108500401085804010860040108E6
:1026700068040108700401087C040108880401084A
:1026800094040108A0040108AC040108072900D93A
:1026900007218160034B53F821304360002303700E
:1026A000704700BFD804010810B5044602F082F854
:1026B000F12002F097F8A2680221044B53F822009F
:1026C00002F0D6F80123237010BD00BFB804010842
:1026D00000B585B00DF1100C0CE9070006990298C1
:1026E00000EB830002F0FCF805B05DF804FB00B5D8
:1026F00085B00DF1100C0CE907000699029800EB6B
:10270000830002F0EDF805B05DF804FB10B5044657
:1027100002F060F80023237010BD000084B00DF1BA
:10272000100C0CE907001146034A52F8212052F818
:10273000230004B0704700BFD804010884B00DF135
:10274000100C0CE907001146034A52F8212052F8F8
:10275000230004B0704700BFD8040108F8B5056E27
:10276000446EC16D4FF07E50FDF79AFF0646294634
:102770004FF07E50FDF794FF054621464FF07E5006
:10278000FDF78EFF04461F4B1B68EBB91E4B1F68FD
:10279000F86AFEF737F83146FEF78CF8FEF78CFA48
:1027A0007863F86AFEF72EF82946FEF783F8FEF7FD
:1027B00083FAB863F86AFEF725F82146FEF77AF83F
:1027C000FEF77AFAF863F8BD0F4B1F68F86AFEF758
:1027D00019F83146FEF76EF8FEF76EFAB863F86A3C
:1027E000FEF710F82946FEF765F8FEF765FA7863FC
:1027F000F86AFEF707F82146FEF75CF8FEF75CFA88
:10280000F863E0E7DC0B0020209C002070B5044654
:10281000234B1B68002B39D1224802F065FE606013
:10282000214802F061FEA0601E4D284602F05EFDC8
:102830004FF0FF31284602F0FBFD1C4802F054FE29
:102840002061FDF7E3FF1A49FEF734F82062666F56
:102850006068D4F89C30C01AFDF7D8FF01463046B6
:10286000FEF728F805466061A068D4F8A030C01AC9
:10287000FDF7CCFF01463046FEF71CF80146A0618B
:1028800005F10040FDF70CFFE06170BD064802F065
:102890002BFE6060034802F027FEA060C4E700BF83
:1028A000DC0B0020D8090020200A0020680A002044
:1028B0001833533C2DE9F84F05460F461646984607
:1028C00001F0F0FC0446284601F0CCFC05463946F0
:1028D0002046FDF7EFFF814631462846FDF7EAFF27
:1028E00001464846FDF7DCFEC8F8000023492846AB
:1028F000FDF7E0FF80464FF07C512046FDF7DAFF00
:10290000814601464046FDF7CBFE3946FDF7D2FF32
:1029100082461B492046FDF7CDFF83464FF07C5190
:102920002846FDF7C7FF804601465846FDF7B8FE2A
:102930003146FDF7BFFF01465046FDF7B1FE0A9B49
:1029400018600F492846FDF7B5FF4946FDF7A8FE78
:102950003946FDF7AFFF054608492046FDF7AAFFB7
:102960004146FDF79DFE3146FDF7A4FF014628468E
:10297000FDF796FE0B9B1860BDE8F88FD7B35D3F5F
:10298000D7B35DBF2DE9F84F0546884617461E466A
:1029900001F088FC0446284601F064FC05464146E7
:1029A0002046FDF787FF82462D492846FDF782FF26
:1029B00083464FF07C512046FDF77CFF814601465F
:1029C0005846FDF76DFE3946FDF774FF0146504647
:1029D000FDF768FE824623492846FDF76BFF49460E
:1029E000FDF75EFE3146FDF765FF01465046FDF7F7
:1029F00059FE1D49FDF75EFF0A9B186005F1004076
:102A00004146FDF757FF804616492046FDF752FF25
:102A100081464FF07C512846FDF74CFF05460146A4
:102A20004846FDF73DFE3946FDF744FF0146404666
:102A3000FDF736FE07460A492046FDF73BFF2946CB
:102A4000FDF72EFE3146FDF735FF01463846FDF70E
:102A500027FE0549FDF72EFF0B9B1860BDE8F88F98
:102A6000D7B35D3FD7B35DBFABAA2A3F2DE9F8438B
:102A70000446884617461D461A463946404601F028
:102A800079FB06462A463946404601F05CFB014682
:102A90003046FDF707FE4FF07C51FDF70BFF064671
:102AA00001464046FDF7FCFD4FF07C51FDF702FF6B
:102AB0002146FDF7B3FF4FF000091D49FDF7F2FD78
:102AC000494601F02EFBDFF86C80414601F032FBF5
:102AD000089B186031463846FDF7E2FD4FF07C5107
:102AE000FDF7E8FE2146FDF799FF1149FDF7DAFDF4
:102AF000494601F016FB414601F01CFB099B18609A
:102B000031462846FDF7CCFD4FF07C51FDF7D2FE53
:102B10002146FDF783FF0649FDF7C4FD494601F054
:102B200000FB414601F006FB0A9B1860BDE8F883F4
:102B3000D7A3F03ED7A3703FF8B504460023C36582
:102B400003664366FFF70AFE00252E462F4607E080
:102B50002046FFF75BFE63681F44A3681E440135EF
:102B6000B5F57A7FF4DB084A82FB0731FB17C3EB2C
:102B7000A113C4F89C3082FB0632F317C3EBA213F7
:102B8000C4F8A030F8BD00BFD34D621070B5054643
:102B9000324BC0F88030C0F88430314CA6683149DF
:102BA0003046FDF787FEA867E8672F493046FDF7F6
:102BB00081FE2E49FDF77EFE01464FF07E50FDF767
:102BC0006FFD01464FF07E50FDF728FF01464FF0A4
:102BD0007E50FDF765FDC5F88C00254BC5F88830A3
:102BE000244B1B68C5F8D430A66B4FF07F51A06A08
:102BF000FDF760FE01463046FDF710FFC5F8900076
:102C00001D49E068FDF7FEFF18B11C4B6B670024FF
:102C100021E01B4B6B67FAE72046FDF7F7FD4FF00D
:102C20003C41FDF747FE1749FDF7F8FEFDF76CFC48
:102C30000CF0FEFF4FF08042134BFEF741FB0022E9
:102C4000124BFDF703FBFDF7D7FC04F1400305EB46
:102C50008303586001347F2CDEDD70BDEC51383DBC
:102C6000DC0A002082A8FB3817B7D137DB0FC94038
:102C7000BD74933BDC0B002000002042FFFFA43C0E
:102C8000FFFF243D6F12033D3333F33F0000F03F5D
:102C900038B50446194B1D68E86AFDF7B3FD4FF0DF
:102CA0007C51FDF707FEFEF707F8E863E86AFDF7D9
:102CB000A9FD4FF07C51FDF7FDFDFDF7FDFF6863B9
:102CC000E86AFDF79FFD4FF07C51FDF7F3FDFDF73E
:102CD000F3FFA8630023C4F8AC30C4F8B030E3635A
:102CE00023646364C4F89830C4F89430A3656365C2
:102CF000C4F8F4300023C4F8FC3038BD209C002018
:102D0000F8B50446D0F888504FF07E51D0F8EC006A
:102D1000FDF7C6FCD4F8F010FDF7C2FC01462846CA
:102D2000FDF7C8FDD4F8F410FDF7BCFCC4F8F400BE
:102D30000026314601F0FEF9264B996901F1004168
:102D400001F0EFF90546C4F8F400D4F8B07031464C
:102D50003846FDF76BFF002837D04FF07E512846EC
:102D6000FDF7A8FD01463846FDF79CFC064600210C
:102D70003846FDF73DFF50BB00212846FDF79AFD80
:102D800001463046FDF78EFCC4F8B000C4F8AC50E4
:102D9000D4F800010146FDF78DFD06462946284678
:102DA000FDF788FD01463046FDF77AFC0CF098FFF0
:102DB00005460146D4F8B00001F0BCF905F1004128
:102DC00001F0AFF9C4F8B000F8BD0021C7E74FF03B
:102DD0007E51D2E7DC0A00202DE9F04184B00446A0
:102DE0000D46CF6DC7624B6E43638B4E716C286E80
:102DF000FDF714FE2063716CE868FDF70FFEA0621A
:102E000004F14003019304F13C030093E369A269D8
:102E100061693846FFF7B6FD8049606CFDF74AFDF1
:102E200005467F49206CFDF745FD01462846FDF724
:102E300039FC60647949A06CFDF73CFD0546784992
:102E4000E06BFDF737FD01462846FDF72BFCA0643B
:102E50007249606AFDF72EFD05467149206AFDF74B
:102E600029FD01462846FDF71DFC60626D49FDF70E
:102E700021FD6D49FDF71EFDC4F8EC00D4F8F010FB
:102E8000FDF70EFCC4F8F800F268C4F8002104F164
:102E9000B00104F1AC0001F084F9E16BD4F8AC00AE
:102EA000FDF7FEFB0546276C3946D4F8B000FDF768
:102EB000F7FB0646216D3846FDF7B8FE00B12765E1
:102EC0002946A06FFDF7F6FCD4F89410FDF7EAFB55
:102ED0000021FDF7E7FB6065D4F8EC1001F02AF95A
:102EE000D4F8EC1001F1004101F01BF96065D4F851
:102EF0008010A06FFDF7DEFC2946FDF7DBFCD4F85F
:102F00009410FDF7CFFBC4F89400D4F8EC1001F056
:102F100011F9D4F8EC1001F1004101F002F9C4F804
:102F20009400D4F8EC50D4F87C8031464046FDF74C
:102F3000C1FCD4F898703946FDF7B4FB0021FDF7C9
:102F4000B1FBA065D4F884104046FDF7B3FC3146D0
:102F5000FDF7B0FC01463846FDF7A4FBC4F8980025
:102F6000294601F0E7F8D4F8EC1001F1004101F036
:102F7000D8F8C4F89800606D0146FDF79BFC064642
:102F8000A06D0146FDF796FC01463046FDF78AFB31
:102F90000CF0A6FEC4F8F0002946A06D01F0CAF8B6
:102FA00005F1004101F0BDF8A065D4F8EC2004F172
:102FB000580104F1540001F0F4F8D4F82C801B49B6
:102FC000606BFDF777FC014604F16807A66D656D3F
:102FD0004046FDF767FB04F17003019304F16C03B5
:102FE00000933B4632462946FFF764FC04F1640334
:102FF000029304F16003019304F15C030093236FD7
:10300000E26EA16ED4F8EC00FFF730FD2046FFF72A
:10301000A5FB04B0BDE8F081DC0A00206666663FCF
:10302000CDCCCC3DD7A3703F3ACD133F51491D388D
:1030300070B504462949D0F8BC00FDF73BFC0546B5
:103040002749D4F8E800FDF735FC01462846FDF78E
:1030500029FB0546C4F8BC00D4F8E060A16AD4F8A6
:10306000D800FDF71DFB01463046FDF723FC014665
:103070002846FDF717FB0546D4F8E460216BD4F829
:10308000DC00FDF70DFB01463046FDF713FC014661
:103090002846FDF707FB0546124B596C986BFDF768
:1030A00009FC0146D4F800612846FDF7B7FC31461B
:1030B00001F040F8D4F8001101F1004101F031F8BD
:1030C000C4F8B0000849206AFDF7B0FD10B1002334
:1030D000C4F8B0300023C4F8AC3070BD6666663FFB
:1030E000CDCCCC3DDC0A0020000020420023C0F8FB
:1030F000E830C0F8E030C0F8E430C0F8D830C0F8AC
:10310000DC30C0F8B030704710B504460378052BAA
:1031100006D8DFE803F003200C0506090123C3707D
:1031200010BD0123C370FBE70123C370F8E701233F
:10313000C3700D4B18689988FFF7BBF90B4C2046FC
:10314000FFF7A6FD00222021094803F057F820468A
:10315000FFF7CCFFE4E7044B18689988FFF7A9F95B
:103160000123E370DCE700BF409B0020389800207B
:103170000008024008B50C4804F05CFF0B4804F05E
:1031800059FF0B4804F056FF0A4804F053FF0A4861
:1031900004F050FF094804F04DFF094804F04AFFCD
:1031A000084804F047FF08BD5C0A0108F80401085C
:1031B000080501081C050108380501084805010833
:1031C000600501087C0501082DE9F04184B06748DD
:1031D00004F030FF664B0193664B0093664B674AE1
:1031E0006749684804F026FF674804F085FF674C8C
:1031F000DFF89C81674D606CFDF786F9CDE902012F
:10320000654F00974346654A6549284604F012FF1A
:10321000A06BFDF779F9CDE9020100974346614AB9
:103220006149624804F006FF614804F065FFA06848
:10323000FDF76AF9CDE902015E4B00935E4B5F4AF0
:103240005F49284604F0F6FE5E4EE068FDF75CF943
:10325000CDE902015C4B009333465C4A5C49284649
:1032600004F0E8FE206DFDF74FF9CDE9020100976B
:103270003B46584A5849284604F0DCFEA06DFDF74D
:1032800043F9CDE9020100973B46544A5449284688
:1032900004F0D0FEE06DFDF737F9CDE90201514BA6
:1032A00000933346504A5149284604F0C3FE206E2D
:1032B000FDF72AF9CDE902014D4B009333464D4A03
:1032C0004D49284604F0B6FEA069FDF71DF9CDE989
:1032D00002014A4B00933346494A4A49284604F0C2
:1032E000A9FE606AFDF710F9CDE90201464B009393
:1032F0003346464A4649284604F09CFEA06CFDF73A
:1033000003F9CDE90201434B00933346424A434956
:10331000284604F08FFE424804F0EEFE414D424C38
:1033200063680193414E00964346414A414928460D
:1033300004F080FEA3680193009643463E4A3F494D
:10334000284604F077FEE36801933D4B0093434623
:103350003C4A3D493D4804F06DFE3D4804F06AFE9C
:103360003C4804F067FE04B0BDE8F0819405010814
:10337000E8050108F8050108B0050108B4050108D1
:10338000C0050108C8050108FC050108DC0A002089
:10339000080601081C0601083C0601080C06010885
:1033A0001806010840060108580601085C060108D5
:1033B0007C060108AC0601088C060108900601088D
:1033C000A8060108B4060108D0060108B8060108DD
:1033D000CC060108D8060108F4060108F806010821
:1033E000180701083C0701081C07010838070108F5
:1033F00068070108440701086407010884070108F9
:103400006C07010838130108A40701088C0701089C
:10341000CC150108C8070108AC070108C40701085A
:10342000D0070108E8070108DC0B002008080108A4
:10343000DC070108E40701080C0801081808010866
:103440005C0801081C0801083C0801084008010844
:1034500064080108B008010808B50378042B06D8F1
:10346000DFE803F0031709050600FFF783FE08BD38
:10347000FFF7AAFEFBE701222021104802F0BEFE62
:103480000F48FFF705FC0F4B18689988FEF7FDFF02
:10349000EDE70D4B002183F8221083F821101974F9
:1034A0000A48C0F8D8104FF40072DC3004F070FD08
:1034B000044B18689988FEF7E8FFD8E70008024037
:1034C00038980020409B00202C1300204C10002036
:1034D00030B583B00446437B613B172B00F2468135
:1034E000DFE813F0BD001800A800080144017400D3
:1034F000D20093004B004401E4005F0055004401FA
:1035000044011A01440144014401890044012F018E
:103510004401F600043004F009FDFDF76DF8984908
:103520000CF056FB97490CF03FFB974B9860FCF76B
:10353000EBFF02460B46954804F07CFD944B1A695C
:1035400000920FCB01F02AF8002800F01481904D72
:10355000284601F02BF8284601F07CF82B690093EF
:1035600095E80F0001F04CF8FFF72EFE00232373BF
:1035700063736360A36003B030BD043004F0DAFC11
:103580000146844B5860844804F054FDD6E704306B
:1035900004F0D0FC01467F4B9860804804F04AFD5F
:1035A000CCE7043004F0C2FCFDF726F87C490CF0AF
:1035B0000FFB00210CF0F8FA734BD860FCF7A4FF66
:1035C00002460B46774804F035FDB7E7043004F0B7
:1035D000ADFCFDF711F874490CF0FAFA00210CF07B
:1035E000E3FA694B9861FCF78FFF02460B466F4880
:1035F00004F020FDA2E7043004F09CFC0146654B7A
:10360000D8606B4804F016FD98E7043004F08EFC97
:10361000FCF7F2FF67490CF0DBFA00210CF0C4FA6A
:10362000594B1862FCF770FF02460B46624804F0E3
:1036300001FD83E7043004F079FCFCF7DDFF5F490E
:103640000CF0C6FA00210CF0AFFA4F4B5862FCF7B1
:103650005BFF02460B465A4804F0ECFC6EE7043070
:1036600004F064FCFCF7C8FF56490CF0B1FA0021E5
:103670000CF09AFA444B9864FCF746FF02460B465E
:10368000514804F0D7FC59E7043004F04FFCFCF734
:10369000B3FF4E490CF088FA3B4B5864FCF734FFFB
:1036A00002460B464A4804F0C5FC47E7043004F0E4
:1036B0003DFCFCF7A1FF47490CF076FA324B9863CA
:1036C000FCF722FF02460B46434804F0B3FC35E703
:1036D000043004F02BFCFCF78FFF00210CF064FA9F
:1036E000294BD865FCF710FF02460B463B4804F017
:1036F000A1FC23E7043004F019FCFCF77DFF002156
:103700000CF052FA204B1866FCF7FEFE02460B4600
:10371000334804F08FFC11E7043004F007FCFCF799
:103720006BFF00210CF040FA174A106500F10043CE
:10373000D364FCF7E9FE02460B462A4804F07AFC03
:10374000FCE6043004F0F2FBFCF756FF00210CF01D
:103750002BFA0D4A906500F100435365FCF7D4FE47
:1037600002460B46204804F065FCE7E6011D1F48B1
:1037700004F060FCE2E6064800F009FFE7E600BF5F
:103780000000FA440000C842DC0A0020DC080108FE
:10379000489B0020DC0B0020F00801080409010808
:1037A000000096421C09010800000442300901088B
:1037B0004809010800001643600901080000204282
:1037C000780901080000A041900901086F12833AAE
:1037D000A409010817B7D138B4090108C4090108C0
:1037E000D8090108EC090108000A0108140A0108B7
:1037F0001B2907D010B582B003783BB1042B78D0D9
:1038000002B010BD00234370C3707047633917299D
:10381000F6D801A353F821F07938000801380008E0
:103820008D38000801380008013800080138000808
:103830000138000801380008013800080138000884
:1038400083380008013800080138000801380008F2
:1038500001380008013800089738000801380008CE
:103860000138000801380008013800080138000854
:1038700001380008A1380008012343700023C370F9
:10388000BEE7022343700023C370B9E705234370EA
:103890000023C370B4E7042343700023C370AFE771
:1038A0001B4C0023C4F8D4301A49204600F030FDE8
:1038B000A26F194B1A61194B1A6900920FCB00F0D5
:1038C0006DFE90B1154C204600F070FE204600F0D1
:1038D000C1FE2369009394E80F0000F091FE0E4BA7
:1038E00019690F4804F0A6FB8AE70C4800F04FFE68
:1038F000E8E70D2905D0037B33B941730133037326
:103900007EE7FFF7E5FD7BE75A1E02441171F5E7FC
:103910004C10002017B7D137DC0B0020489B00204B
:103920003C0A01082DE9F04383B00446427803784D
:103930009A420AD12378022B7AD0052B00F0968088
:10394000012B0DD003B0BDE8F083FFF7DDFBE3787A
:10395000002BEFD0637823702046FFF77DFDE9E769
:10396000454B93F821305BB1434B93F822307BB940
:103970004249D1F8C030404A4148FEF791F9E1E7A9
:103980003E49D1F8C0303C4A3D48FEF7D5F8D9E76A
:10399000394DEE693B4F7E61DFF8E480D8F86890DE
:1039A0007042FCF733FF01464846FCF783FF4FF0B7
:1039B0006051FCF77FFF4FF07E510CF073F93249F4
:1039C000FCF778FFFCF7A0FD02460B4631462F4876
:1039D00004F030FB05F500452C354FF400763246F7
:1039E000294608F1DC00FDF709FB3246294607F1BC
:1039F0001800FDF703FB264B1A6900920FCB00F06D
:103A0000CDFD88B1224D284600F0D0FD284600F0BB
:103A100021FE2B69009395E80F0000F0F1FD1B21BA
:103A20002046FFF7E5FE8DE7194800F0B0FDE9E715
:103A3000144BDB68002B04DD104AD2F8C4209342FB
:103A400010DB0E4C2046FFF7F3FA2046FFF758F93B
:103A50000B492046FFF7C0F9D4F8C4300133C4F84D
:103A6000C4306FE70548FFF741FBEAE764210448EB
:103A700000F052FD66E700BF2C13002038980020AC
:103A80004C100020DC0B0020DB0FC940640A010849
:103A9000489B00202DE9F0418AB00024059406944B
:103AA00007940894099401942C4B1A6B42F0040279
:103AB0001A631A6B02F004020192019A02941A6BC3
:103AC00042F080021A631A6B02F080020292029A9C
:103AD00003941A6B42F001021A631A6B02F001029E
:103AE0000392039A04941A6B42F002021A631B6B4E
:103AF00003F002030493049BDFF86480224648F637
:103B00001001404602F07AFB164D2246202128463D
:103B100002F074FB4FF4005305934FF40413069323
:103B2000079405A9284602F07DFA48F6100305938C
:103B30000127069707940326089605A9404602F038
:103B400071FA2023059306970794089605A928463D
:103B500002F068FA0AB0BDE8F08100BF0038024008
:103B6000000002400008024030B595B03422002128
:103B700007A804F00DFA0024029403940494059419
:103B8000069400941D4B1A6C42F080521A641B6C10
:103B900003F080530093009B0194194B1A6842F480
:103BA00040421A601B6803F440430193019B0123C8
:103BB00007934FF48033089302250D954FF480034B
:103BC0000E9304230F93B42310931195129513951C
:103BD00007A802F0EDFC02F017FB0F2302930395F8
:103BE00004944FF4A05305934FF48053069305219A
:103BF00002A802F047FB15B030BD00BF00380240FC
:103C0000007000402DE9F04389B001F069FAFFF738
:103C1000ABFFFFF73FFF01F09FF901F013F9FEF74B
:103C20001BFA00F01DFD00F03FFDFDF759FEFDF70A
:103C30009FFEFDF7D1FE904C0621204600F0A0FC2F
:103C40002369009394E80F0000F0DAFC8B4B5B696A
:103C5000B3F1FF3F00F01182884B1B69B3F1FF3FC6
:103C600000F00F82864B9C6821462046FCF7E8FF57
:103C700020B984492046FCF7B1FF10B1804B824A3D
:103C80009A607F4BDC6821462046FCF7D9FF20B9BB
:103C90007C492046FCF7A2FF10B1794B7B4ADA60E1
:103CA000774B9C6921462046FCF7CAFF20B975492D
:103CB0002046FCF793FF10B1714B00229A616F4BC5
:103CC0005B68B3F1FF3F00F0E0816C4B9B68B3F1A0
:103CD000FF3F00F0DE81694BDB68B3F1FF3F00F08E
:103CE000DC81674BDC6921462046FCF7A9FF20B93F
:103CF00064492046FCF772FF10B1614B0022DA6183
:103D00005F4B1C6A21462046FCF79AFF20B95D49AB
:103D10002046FCF763FF10B1594B5D4A1A62584BBD
:103D20005C6A21462046FCF78BFF20B955492046A6
:103D3000FCF754FF10B1524B564A5A62504B9C6CE0
:103D400021462046FCF77CFF20B94E492046FCF76F
:103D500045FF10B14A4B504A9A64494B9C6A214630
:103D60002046FCF76DFF20B946492046FCF736FF98
:103D700010B1434B494A9A62414B5C6C2146204644
:103D8000FCF75EFF20B93F492046FCF727FF18B13A
:103D90003B4B4FF07E525A64394B9C6B2146204678
:103DA000FCF74EFF20B937492046FCF717FF18B142
:103DB000334B4FF07E529A63314BDC6D21462046E7
:103DC000FCF73EFF20B92F492046FCF707FF10B152
:103DD0002B4B334ADA652A4B1C6E21462046FCF7F2
:103DE0002FFF20B927492046FCF7F8FE10B1244BDD
:103DF000294A1A66224B186D0146FCF721FF00285C
:103E000040F050811E4BD86C0146FCF719FF00288A
:103E100040F04C811A4B986D0146FCF711FF0028C9
:103E200040F04881164B586D0146FCF709FF002809
:103E300040F0448100224FF080431A4804F0FAF821
:103E40001948FEF7A3FE4FF438720021174804F01A
:103E50009FF80A490B69164CC4F8D4304B69C4F872
:103E6000D830074DAB6AA3664FF40072183104F1E5
:103E7000DC00FDF7C3F81DE0489B0020DC0B0020B0
:103E8000DC0A0020000080BF00007A4400002042CD
:103E90000000FA42000060410000A0400000A8417C
:103EA0000000FA43780A010838980020589500204D
:103EB0004C1000206421204600F0FEF9824801F0F9
:103EC00015FA824801F012FA814801F00FFA814C8C
:103ED00001221021204602F091F901224FF40061E5
:103EE000204602F08BF9012001F026F9012001F0B3
:103EF00023F9794901240694002205920492039241
:103F0000029201940092134603C9FEF747FA204635
:103F100001F012F97149E868FCF774FE002800F01E
:103F2000D18003276C4E0025069501240594049446
:103F3000039402954FF00308CDF8048000952346C2
:103F40002A4696E80300FEF773FA204601F0F4F8DB
:103F500006950595049503950294019700952346CF
:103F60002A4696E80300FEF763FA204601F0E4F8DB
:103F70005B4F3846FEF7E0FD204601F0DDF80523F3
:103F80000293CDF8048000942B46224696E8030065
:103F9000FEF731FA204601F0CFF896E80300FEF76D
:103FA00088FA204601F0C8F8D7F8A020D7F89C106E
:103FB0004C4804F03FF84C4E2946304603F0FAFADC
:103FC0000421304603F0F6FA0821304603F0F2FAF5
:103FD0004648FEF7A1F84648FEF7B8F8454801F014
:103FE000CDFC2A462946192001F064FF22462146CD
:103FF000142001F05FFF404B06221A705D70DC70E8
:1040000022463E493E4803F074FF304602F0CEFFA0
:10401000642001F091F8304B93E80300FEF75EFA5C
:10402000354B1B78022BF3D12D4BD3F8DC60D3F842
:10403000E070D3F8E480D3F8E890D3F8D800FCF728
:1040400063FA04460D464846FCF75EFACDE90601E0
:104050004046FCF759FACDE904013846FCF754FA1A
:10406000CDE902013046FCF74FFACDE900012246C6
:104070002B46244803F0DEFFCAE7234B00225A6197
:10408000EAE5214B00221A61ECE51F4B01225A6040
:104090001BE61D4B00229A601DE61B4B4FF47A7203
:1040A000DA601EE6194B1A4A1A65ABE6174B194A35
:1040B000DA64AFE6154B184A9A65B3E6134B174A14
:1040C0005A65B7E602272DE7D8090020200A00200C
:1040D000680A002000000240409B002000002042AF
:1040E000389800209C0A0108209C0020DC0F00204A
:1040F0002C100020B00A00205C9B0020D80A002071
:10410000689C0020C40A0108DC0B0020DC0A0020A7
:1041100000004841000048C100008242000082C205
:10412000704738B505460C46FCF780FD00B12C46BB
:10413000204638BD38B505460C46FCF759FD00B1A0
:104140002C46204638BD70B506460D461446FCF791
:104150006DFD38B121463046FCF768FD00B13446AC
:10416000204670BD21462846FCF760FD0028F7D0A8
:104170002C46F5E770B506460D461446FCF738FDAB
:1041800038B121463046FCF733FD00B134462046B5
:1041900070BD21462846FCF72BFD0028F7D02C46A1
:1041A000F5E7F8B506460C46154600680146FCF7EB
:1041B00081FB074620680146FCF77CFB0146384638
:1041C000FCF770FA0BF08CFD07462946FCF72EFD34
:1041D00078B129463068FCF76DFB3946FCF71EFCC8
:1041E000306029462068FCF765FB3946FCF716FC71
:1041F0002060F8BDF8B505460F461E461046FCF790
:104200004FFA044639462846FCF74AFA054601208B
:10421000B0400138FCF7FAFA01462846FCF74AFBA1
:104220002146FCF7FBFBFCF721FDF8BDF8B507467E
:104230000C461E461046FCF733FA05463846FCF796
:10424000E5FA2946FCF736FB05460120B040013867
:10425000FCF7DCFA01462846FCF7E0FB2146FCF7B8
:1042600021FAF8BD10B50C490BF01CFD04460021E5
:10427000FCF7BEFC48B909492046FCF71BFBFCF7DC
:10428000F5FC074B53F8200010BD03492046FCF70E
:1042900009FA0446EFE700BFDB0FC94083F9A242E9
:1042A000E00A010808B501460248FCF7F9F9FFF7F2
:1042B000D9FF08BDDB0FC93FF0B583B006460F46F6
:1042C00000251DE00022344624F8022B4FF4004163
:1042D0000D4801F093FF64230093012322463146E9
:1042E0000A4802F084FC094B93F85130DBB2022BF0
:1042F000F9D001224FF40041034801F07FFF01355E
:10430000BD42DFDB03B0F0BD00000240C49B0020D3
:104310002DE9F04182B004460D46436883601323C3
:104320000AE05A1C04EB8202D2F804C09A1C04EB87
:104330008202C2F804C0013B002BF2DC00222646B8
:1043400026F8022B4FF400416A4801F057FF64231E
:104350000093012332462146674802F048FC664B31
:1043600093F85130DBB2022BF9D001224FF4004117
:10437000604801F043FF618861674B1203F1360228
:1043800004EB820252680133584203F07F0300F0CD
:104390007F0058BF4342363304EB83035B689B1AAC
:1043A000C1F3080707FB03F302EB63270F44A7677A
:1043B000524B1869381AFCF729FA4FF06051FCF794
:1043C00079FA06466060FCF751FCFCF71FFA0146DB
:1043D0003046FCF765F94A49FCF76CFA064660601E
:1043E0000021FCF705FC002834D16660D4F8688011
:1043F000424B5869381AFCF709FA01464046FCF767
:1044000059FA4FF06051FCF755FA0746E065FCF7A2
:104410002DFCFCF7FBF901463846FCF741F9384919
:10442000FCF748FA0746E0650021FCF7E1FBB8B964
:10443000E765A1683046FCF733F907463149FCF7D8
:10444000F5FB98B930493846FCF7D2FB002845D136
:1044500000220DE02A493046FCF724F90646C4E75D
:1044600027493846FCF71EF90746E1E74FF0FF32CF
:10447000D4F880301344C4F8803094F8DC326BB93F
:10448000C4F8803021493046FCF7D0FB40B34FF0F0
:10449000FF33C4F88030012384F8DC32D4F8800084
:1044A000FCF7B4F91649FCF705FA3146FCF7FAF8BF
:1044B000E060A16DFCF7F4F8064615492846FCF7C4
:1044C000F9F901463046FCF7A9FA01462066404654
:1044D000FCF7F0F9606602B0BDE8F0810122C7E7A1
:1044E0000C493046FCF784FB0028D4D00123C4F8E3
:1044F0008030D0E700000240C49B0020DC0B00208D
:10450000DB0FC940DB0F4940DB0F49C0DB0FC93F60
:1045100000009841DB0FC9BF10B50446416F124837
:1045200003F088FDA16F114803F084FD6068FBF77C
:10453000EBFF02460B460E4803F07CFDE068FBF7FC
:10454000E3FF02460B460B4803F074FDE06DFBF7FA
:10455000DBFF02460B46084803F06CFDD4F88010E0
:10456000064803F067FD10BDE0120108E8120108DB
:104570000013010814130108281301083C13010853
:1045800038B504460D46FEF781F8E56038BD10B534
:104590000446FEF789F80123237410BD84B08DE82A
:1045A0000F009DF8100004B07047000030B583B0D4
:1045B0000546002409E0104B53F8243000932346AD
:1045C00095E80700FEF784F80134FF2CF3DD0BE0DB
:1045D000A4F58072094B53F822300093234695E8E6
:1045E0000700FEF784F80134B4F5A07FF0DB002368
:1045F0002B7403B030BD00BFDC0B0020DC0A0020B0
:1046000084B038B504AC84E80F00002408E02346E9
:1046100004AA07CAFEF782F80C4B43F824000134C1
:10462000FF2CF4DD0AE0A4F58075234604AA07CA2E
:10463000FEF784F8064B43F825000134B4F5A07F5B
:10464000F1DBBDE8384004B0704700BFDC0B002050
:10465000DC0A002008B500220274FEF757F808BDF6
:1046600008B50F480F4B03604FF48273436000237B
:1046700083604FF40062C2600361012242614FF423
:10468000007282612822C2610362436283620A234C
:10469000C36202F04DFA00B908BDFFF741FDFBE728
:1046A0006C9B00200030014008B50E480E4B0360A3
:1046B0004FF482734360002383604FF40062C26052
:1046C000036143614FF400728261C361036243621C
:1046D00083620A23C36202F02BFA00B908BDFFF718
:1046E0001FFDFBE7C49B0020003C004000B58BB0E1
:1046F0000023059306930793089309930368284AB8
:10470000934205D0274A934225D00BB05DF804FBB5
:1047100000210191244B5A6C42F480525A645A6C25
:1047200002F480520192019A02911A6B42F0010246
:104730001A631B6B03F001030293029BE0230593B2
:1047400002230693032308930523099305A9174819
:1047500001F068FCD9E700210391134B1A6C42F475
:1047600000421A641A6C02F400420392039A049104
:104770001A6B42F004021A631B6B03F004030493E8
:10478000049B4FF4E05305930223069303230893FD
:104790000623099305A9064801F044FCB5E700BFCC
:1047A00000300140003C0040003802400000024060
:1047B00000080240054B1B69002B00DB7047034BD0
:1047C000034A5A6002F188325A60F7E7003C02401F
:1047D00023016745024A136943F0004313617047A0
:1047E000003C0240014BD860704700BF003C0240D3
:1047F000124BDB6813F4803F15D1104BDB6813F0CC
:10480000100F12D10D4BDB6813F4807F0FD10B4BCF
:10481000DB6813F0E00F0CD1084BDB6813F0020FDC
:1048200009D00820704701207047062070470220F9
:104830007047072070470920704700BF003C0240C6
:1048400000B583B009238DF80730FFF7D1FF8DF84D
:10485000070003E0FFF7CCFF8DF807009DF8073055
:10486000DBB2012BF6D09DF8070003B05DF804FB26
:1048700070B5044649B101290DD0022902D04FF488
:10488000407603E04FF4007600E00026FFF7D8FF03
:10489000092803D070BD4FF48076F7E70F4D2B69E0
:1048A00023F440732B612B691E432E612B6923F087
:1048B000F8032B612869204340F0020028612B692E
:1048C00043F480332B61FFF7BBFF2B6923F0020316
:1048D0002B612B6923F0F8032B61DBE7003C0240DE
:1048E00070B505460C46FFF7ABFF092800D070BD38
:1048F0000A4E336923F440733361336943F4007320
:104900003361336943F0010333612C60FFF798FF93
:10491000336923F001033361E9E700BF003C024043
:1049200000B583B0002100910C4B5A6C42F48042D8
:104930005A645A6C02F480420092009A01911A6CF7
:1049400042F080521A641B6C03F080530193019B68
:10495000072001F09DFA03B05DF804FB0038024027
:104960007047FEE7FEE7FEE7FEE7704770477047D7
:1049700008B500F0CFFB08BD2DE9F04F97B0504DC2
:10498000284601F05FF94F4C234604F10B02002149
:10499000284601F09FF84C4B5F684C4AD6684C4B58
:1049A000D3F84490D2F86080DFF828B1996BDBF837
:1049B0004400FBF77FFF824649464046FCF72EF84D
:1049C000804649463046FCF729F81390FFB2424E24
:1049D000DBF82430019351464846FBF76BFF00900B
:1049E0004346139A39463046FDF7BCFB15AB721CA3
:1049F00006F10801284600F0EFFF14F80119A3782A
:104A00001940E3781940237901EA030260790240F2
:104A1000A6793240E5792A40247AFF2A08BFFC2C87
:104A200029D0FF2B14BF00230123FF2814BF00202F
:104A3000012000FB03F3FF2914BF002303F001034F
:104A4000FF2E14BF002303F00103FF2D14BF00232A
:104A500003F00103FD2C14BF002203F001028AB908
:104A6000FE2C14BF002303F0010383B17A211B48FD
:104A7000FEF7BEFE03E06D211848FEF7B9FE17B041
:104A8000BDE8F08F1B211548FEF7B2FEF7E7144E84
:104A9000144F10976C4606F110050FCD0FC40FCDC3
:104AA0000FC40FCD0FC495E80F0084E80F0096E8FF
:104AB0000F00FDF7A7FB002347F8143CDFE700BF1A
:104AC000B00A0020DD0F0020DC0B00204C1000207D
:104AD000DC0A0020389800202C1000205C9B00206D
:104AE000DC0F00201099002010B5064C204603F082
:104AF000A3F8054B19780548FEF77AFE204603F027
:104B00009BF810BD689C0020D80A00205C9B002008
:104B10002DE9F04F95B0584B03F10B020021574897
:104B200000F0D8FF10B115B0BDE8F08F544B5C68B1
:104B3000544AD2F80CB0544B5F6C166E534D996BBF
:104B4000286DFBF7B7FE8046D5F8EC90D5F8F0A0BD
:104B500039463046FBF762FF064639465846FBF7B2
:104B60005DFF05465FFA84FB494C51464846FBF71A
:104B700097FD019041463846FBF79CFE0090334676
:104B80002A4659462046FDF7EDFA13AB621C04F1A4
:104B900008013A4800F020FF3E4A507893781840C8
:104BA000D3781840137900EA030192F805C001EAAE
:104BB0000C0195792940D4792140127AFF2908BF48
:104BC000FC2A2CD0FF2B14BF00230123BCF1FF0FC4
:104BD00014BF4FF0000C4FF0010C0CFB03F3FF2847
:104BE00014BF002303F00103FF2D14BF002303F0C3
:104BF0000103FF2C14BF002303F00103FD2A14BF9F
:104C0000002103F0010179B9FE2A14BF002303F04B
:104C1000010373B17A212048FEF7EAFD83E76D2195
:104C20001D48FEF7E5FD7EE71B211B48FEF7E0FD72
:104C300079E7184D194C1094EC4605F1100EBEE8BA
:104C40000F00ACE80F00BEE80F00ACE80F00BEE8B4
:104C50000F00ACE80F009EE80F008CE80F0095E80D
:104C60000F00FDF7CFFA002244F8142C54F8982CCA
:104C700044F8882C57E700BFDD0F0020B00A002061
:104C8000DC0B00204C100020DC0A002038980020AB
:104C90002C100020DC0F00205C9B002010990020CD
:104CA00010B50B4C2046FDF7B1FD0A490A48FFF745
:104CB0002FFB0A48FEF736FEFFF72AFFD4F8C03074
:104CC0000133C4F8C030064802F0BAF910BD00BF85
:104CD0003898002017B7D1374C1000205C9B00207B
:104CE000209C00200120704708B503F027F9162307
:104CF00003604FF0FF3008BD08B54FF0FF31FFF7FC
:104D0000F3FFFEE770B50C461646002506E0AFF34C
:104D10000080214601F8010B01350C46B542F6DB57
:104D2000304670BD70B50C461646002504E014F8F8
:104D3000010B00F069F90135B542F8DB304670BD72
:104D40004FF0FF3070474FF400534B600020704726
:104D5000012070470020704708B503460B4A1268CF
:104D600042B10A4A106803446A46934206D8074A89
:104D7000136008BD054A06491160F2E703F0DEF84A
:104D80000C2303604FF0FF30F3E700BF1C9C0020B2
:104D9000F89C0020024B4FF000629A60704700BF01
:104DA00000ED00E002680E4B9A4200D0704700B55B
:104DB00083B00021019103F59C335A6C42F001024B
:104DC0005A645B6C03F001030193019B0A461920AE
:104DD00001F070F8192001F0A5F803B05DF804FBAC
:104DE0000000014000B587B00023019302930393B4
:104DF000049305930268104B9A4202D007B05DF805
:104E000004FB002300930D4B1A6B42F001021A635E
:104E10001B6B03F001030093009B4FF4E0630193CD
:104E200002230293032304930123059301A9044859
:104E300001F0F8F8E2E700BF00000140003802404E
:104E40000000024030B597B00024129413941494DB
:104E500015941094119409940A940B940C940D9445
:104E60000E940F9420252A46214601A803F090F8BD
:104E70003748384B03604460856040F6CA03C3601E
:104E80000461012343618023836102F0FBF9002860
:104E900046D14FF48053129312A92D4802F0FCFA28
:104EA000002840D12A4802F019FA00283ED10023F8
:104EB0001093119310A9264802F0FEFB002838D168
:104EC0006023099300220A9202230B930C9204237D
:104ED0000D930E920F9209A91D4802F063FA58BB78
:104EE000042209A91A4802F05DFA40BB082209A968
:104EF000174802F057FA28BB00230193029303934B
:104F0000049305934FF400520692089301A91048A8
:104F100002F018FCC8B90E48FFF764FF17B030BDA7
:104F2000FFF7FEF8B5E7FFF7FBF8BBE7FFF7F8F888
:104F3000BDE7FFF7F5F8C3E7FFF7F2F8D0E7FFF7B3
:104F4000EFF8D3E7FFF7ECF8D6E7FFF7E9F8E2E789
:104F5000209C00200000014008B50A480A4B03606D
:104F60004FF4E133436000238360C36003610C228C
:104F700042618361C36102F03BFD00B908BDFFF7E8
:104F8000CFF8FBE7689C00200044004010B588B0D3
:104F90000023039304930593069307930268184B29
:104FA0009A4201D008B010BD0024019403F5FA33F1
:104FB0001A6C42F400321A641A6C02F40032019244
:104FC000019A02941A6B42F001021A631B6B03F000
:104FD00001030293029B0C230393022304930323F4
:104FE00006930723079303A9064801F01BF82246FE
:104FF0002146262000F05EFF262000F093FFD1E737
:10500000004400400000024000B583B001904FF61C
:10501000FF73012201A9034802F019FD002003B02B
:105020005DF804FB689C002008B501220249034892
:1050300002F05FFF08BD00BFD80A0020689C002076
:10504000DFF834D00D480E490E4A002302E0D45850
:10505000C4500433C4188C42F9D30B4A0B4C0023C0
:1050600001E013600432A242FBD3FFF793FE02F08B
:105070006BFFFEF7C7FD7047000002200000002014
:10508000BC090020A4190108BC090020F89C0020DC
:10509000FEE7000010B504460E4B18784FF47A7303
:1050A000B3FBF0F30C4A1068B0FBF3F000F048FFDC
:1050B00068B90F2C01D901200AE0002221464FF0E7
:1050C000FF3000F0F7FE054B1C60002000E00120DF
:1050D00010BD00BF040000200000002008000020D8
:1050E00008B50B4B1A6842F400721A601A6842F451
:1050F00080621A601A6842F480721A60032000F01D
:10510000C7FE0020FFF7C6FFFFF70AFC002008BD1E
:10511000003C0240034A1168034B1B780B441360A8
:10512000704700BFAC9C002004000020014B1868B1
:10513000704700BFAC9C002038B50446FFF7F6FF6F
:105140000546B4F1FF3F02D0044B1B781C44FFF727
:10515000EDFF401BA042FAD338BD00BF0400002081
:105160004A4B5A6822F440325A605A6841680A43EE
:105170005A600268536823F480735360026853686E
:10518000016943EA012353600268536823F04073C6
:1051900053600268536881680B43536002689368E8
:1051A00023F40063936002689368C1680B439360C3
:1051B000826A374B9A4257D00268936823F0706333
:1051C000936002689368816A0B43936002689368F6
:1051D00023F04053936002689368C16A0B43936065
:1051E0000268936823F00203936002689368017E6B
:1051F00043EA4103936090F82030002B3FD00268CF
:10520000536843F4006353600268536823F46043B7
:10521000536001684B68426A013A43EA42334B608B
:105220000268D36A23F47003D3620168CB6AC2694F
:10523000013A43EA0253CB620268936823F4007395
:1052400093600268936890F8301043EA41239360BA
:105250000268936823F480639360026893684169ED
:1052600043EA8123936070470268936823F0706378
:1052700093600268936823F040539360B0E702683C
:10528000536823F400635360CAE700BF0023014062
:105290000100000F38B310B50446036C43B1236C12
:1052A00013F0100F0BD00120002384F83C3010BD08
:1052B000FCF7C4FB0023636484F83C30EFE7236C05
:1052C00023F4885323F0020343F0020323642046AF
:1052D000FFF746FF00206064236C23F0030343F0D4
:1052E00001032364E0E701207047000082B000233F
:1052F000019390F83C30012B00F08980012380F865
:105300003C3003689A6812F0010F13D19A6842F09A
:1053100001029A60414B1B68414AA2FB03239B0C8C
:1053200003EB4303019302E0019B013B0193019BCB
:10533000002BF9D10268936813F0010F5CD0036C65
:1053400023F4E06323F0010343F4807303645368A0
:1053500013F4806F05D0036C23F4405343F480535F
:105360000364036C13F4805F1BD0436C23F00603CB
:105370004364002380F83C306FF022031360294B14
:105380005B6813F01F0F27D10368274A934211D09F
:1053900002F58072934207D0244A934214D0002031
:1053A00033E000234364E4E702F50072526812F030
:1053B0001F0FF1D19A6812F0405F2AD19A6842F02B
:1053C00080429A60002020E002F58072526812F05C
:1053D000100FEFD0002018E00368134A934201D069
:1053E000002012E09A6812F0405F14D19A6842F0EF
:1053F00080429A60002008E0036C43F010030364CD
:10540000436C43F001034364002002B07047022064
:10541000FBE70020F9E70020F7E700BF00000020CD
:1054200083DE1B4300230140002001400022014095
:1054300070B504460D4603689A6812F4806F03D075
:105440009B6813F4807F19D1FFF770FE064623682E
:105450001A6812F0020F20D1B5F1FF3FF7D0B5B9AD
:1054600023681B6813F0020FF1D1236C43F004038F
:105470002364002384F83C30032032E0036C43F0C3
:1054800020030364002380F83C30012029E0FFF76B
:105490004DFE801BA842DAD9E2E76FF012021A60D3
:1054A000236C43F40073236423689A6812F0405F0E
:1054B00016D1207EB0B9DA6A12F4700F03D09B685F
:1054C00013F4806F0DD1236C23F480732364236C59
:1054D00013F4805F05D1236C43F00103236400E0E3
:1054E000002070BD0020FCE70368D86C7047000006
:1054F00030B482B00023019390F83C30012B00F0CF
:10550000C080012380F83C300B68092B41D9046826
:10551000E2689BB203EB43031E3B4FF0070C0CFA0F
:1055200003F322EA0303E3600468E2680B8803EBF9
:1055300043031E3B8D6805FA03F31343E3604B6896
:10554000062B3DD80468626B03EB8303053B4FF0E9
:105550001F0C0CFA03F322EA030363630468626B13
:105560004B6803EB8303053BB1F800C00CFA03F36F
:10557000134363630268444B9A4251D00268424B22
:105580009A425AD0002380F83C30184602B030BC12
:105590007047046822699BB203EB43034FF0070C8A
:1055A0000CFA03F322EA03032361046822690B88DF
:1055B00003EB43038D6805FA03F313432361BEE74E
:1055C0000C2B16D805682A6B03EB8303233B1F249F
:1055D00004FA03F322EA03032B6305682A6B4B6882
:1055E00003EB8303233B0C8804FA03F313432B637D
:1055F000C0E70568EA6A03EB8303413B1F2404FA12
:1056000003F322EA0303EB620568EA6A4B6803EBE3
:105610008303413B0C8804FA03F31343EB62A9E7CD
:105620000B68122BAAD1194B5A6822F400025A6057
:105630005A6842F480025A60A0E70B68144A934209
:1056400001D0112B9ED1114B5A6822F480025A606E
:105650005A6842F400025A600A680D4B9A4291D18E
:105660000C4B1B680C4AA2FB03239B0C03EB83032C
:105670005B000193019B002B84D0019B013B0193B4
:10568000F8E7022082E700BF00200140002301402C
:10569000120000100000002083DE1B4390F83C3015
:1056A000012B22D010B4012380F83C30104B5A68F3
:1056B00022F01F025A605A680C6822435A605A68E6
:1056C00022F440425A605A684C6822435A605A6831
:1056D00022F470625A605A6889680A435A6000234B
:1056E00080F83C30184610BC70470220704700BF5D
:1056F00000230140002800F0A18038B5044690F84E
:105700002030D3B12268136843F001031360FFF720
:105710000DFD054623685A6812F0010F10D1FFF7FE
:1057200005FD401B0A28F5D9636A43F40033636220
:10573000052384F82030012038BDFCF7ADFCE1E7FB
:105740001A6822F002021A60FFF7F0FC054623688F
:105750005A6812F0020F0DD0FFF7E8FC401B0A2830
:10576000F5D9636A43F400336362052384F820307B
:105770000120E1E7227E012A3DD01A6822F0800252
:105780001A60637E012B3BD02268136823F040032C
:105790001360A37E012B39D02268136823F0200305
:1057A0001360E37E012B37D02268136843F01003A7
:1057B0001360237F012B35D02268136823F0080380
:1057C0001360637F012B33D02268136823F0040336
:1057D0001360A368E26813432269134362691343A9
:1057E0006268013A21681343CB61002060620123A3
:1057F00084F82030A0E71A6842F080021A60C0E7FF
:105800002268136843F040031360C2E722681368FC
:1058100043F020031360C4E72268136823F01003E9
:105820001360C6E72268136843F008031360C8E7F3
:105830002268136843F004031360CAE7012070472D
:1058400090F82030013BDBB2012B05D9436A43F4C9
:10585000802343620120704710B5474BD3F80022E4
:1058600042F00102C3F80022D3F8002222F47C5255
:10587000C3F80022D3F80022486A42EA0022C3F8A3
:1058800000224A6902F01F02012000FA02F2D3F856
:105890001C026FEA020C20EA0200C3F81C02CB696A
:1058A000CBB9354BD3F80C020CEA0000C3F80C025C
:1058B0008C884869D1F80CE044EA0E44483043F83B
:1058C00030408C68088840EA04404C6904F1480E76
:1058D00003EBCE035860CB69012B1ED08B69002BE4
:1058E00035D12548D0F804320CEA0303C0F804325D
:1058F0000B699BBB2048D0F814320CEA0303C0F8B4
:1059000014320B6A012B30D01B4AD2F8003223F03C
:105910000103C2F80032002010BD174BD3F80C026F
:105920001043C3F80C028C884869D1F800E044EABF
:105930000E44483043F8304088894C69D1F808E07B
:1059400040EA0E40483403EBC4035860C6E70A48F7
:10595000D0F804321343C0F80432C9E70648D0F83F
:1059600014321343C0F81432CBE70349D1F81C3288
:105970001A43C1F81C22C7E70064004070B5044612
:1059800090F82050EDB2012D06D0436A43F4002375
:1059900043620125284670BD022380F8203002684A
:1059A000136823F001031360FFF7C0FB064623686A
:1059B0005B6813F0010F0CD0FFF7B8FB831B0A2BB9
:1059C000F5D9636A43F400336362052384F8203019
:1059D000E0E700256562DDE730B590F820C0046897
:1059E000A4680CF1FF3C5FFA8CFCBCF1010F6BD892
:1059F00014F0E05F62D0C4F3016CBCF1020F05D972
:105A0000436A43F400034362012062E0012404FA84
:105A10000CF41C608B68002B3DD10D68CB680468CA
:105A200043EA45550CF118031B01E55003680C6966
:105A30000CF1180E03EB0E135C600B7D012B35D0BF
:105A4000D17993791B0443EA0163517943EA012335
:105A500014790168234301EB0C11C1F88C31D17822
:105A600093781B0443EA0163517843EA01231178D8
:105A700002680B4302EB0C12C2F8883102680CF189
:105A8000180C4FEA0C1C52F80C3043F0010342F89A
:105A90000C3000201DE04C6843EAC403CC6823436B
:105AA0000CF11804240105682B51BFE7036803EBD0
:105AB0000E13596841F480715960C1E7436A43F499
:105AC00000134362012004E0436A43F480234362ED
:105AD000012030BD90F820C00CF1FF3C5FFA8CFC37
:105AE000BCF1010F00F29B8010B451B90468E46866
:105AF00014F0030F10D1436A43F4001343620120F2
:105B00007BE00468246914F0030F05D1436A43F471
